{
  "_format": "hh-sol-artifact-1",
  "contractName": "EnjoyFactory",
  "sourceName": "contracts/EnjoyFactory.sol",
  "abi": [
    {
      "anonymous": false,
      "inputs": [
        {
          "indexed": true,
          "internalType": "address",
          "name": "collectionAddress",
          "type": "address"
        },
        {
          "indexed": false,
          "internalType": "address",
          "name": "owner",
          "type": "address"
        },
        {
          "indexed": false,
          "internalType": "string",
          "name": "name",
          "type": "string"
        },
        {
          "indexed": false,
          "internalType": "string",
          "name": "symbol",
          "type": "string"
        },
        {
          "indexed": false,
          "internalType": "string",
          "name": "tokenURI",
          "type": "string"
        }
      ],
      "name": "CollectionCreated",
      "type": "event"
    },
    {
      "inputs": [
        {
          "internalType": "address",
          "name": "_creator",
          "type": "address"
        },
        {
          "internalType": "string",
          "name": "_name",
          "type": "string"
        },
        {
          "internalType": "string",
          "name": "_symbol",
          "type": "string"
        },
        {
          "internalType": "string",
          "name": "_tokenURI",
          "type": "string"
        }
      ],
      "name": "createCollection",
      "outputs": [
        {
          "internalType": "address",
          "name": "",
          "type": "address"
        }
      ],
      "stateMutability": "nonpayable",
      "type": "function"
    }
  ],
  "bytecode": "0x608060405234801561001057600080fd5b50613157806100206000396000f3fe60806040523480156200001157600080fd5b50600436106200002e5760003560e01c80633df174531462000033575b600080fd5b6200005160048036038101906200004b9190620002f8565b62000069565b604051620000609190620003d8565b60405180910390f35b600080858585856040516200007e906200010f565b6200008d94939291906200047e565b604051809103906000f080158015620000aa573d6000803e3d6000fd5b5090508073ffffffffffffffffffffffffffffffffffffffff167f257420148154685ee05cdaf5c83f10362604770035323dde6f8f5224ef523c9f87878787604051620000fb94939291906200047e565b60405180910390a280915050949350505050565b612c4180620004e183390190565b6000604051905090565b600080fd5b600080fd5b600073ffffffffffffffffffffffffffffffffffffffff82169050919050565b60006200015e8262000131565b9050919050565b620001708162000151565b81146200017c57600080fd5b50565b600081359050620001908162000165565b92915050565b600080fd5b600080fd5b6000601f19601f8301169050919050565b7f4e487b7100000000000000000000000000000000000000000000000000000000600052604160045260246000fd5b620001eb82620001a0565b810181811067ffffffffffffffff821117156200020d576200020c620001b1565b5b80604052505050565b6000620002226200011d565b9050620002308282620001e0565b919050565b600067ffffffffffffffff821115620002535762000252620001b1565b5b6200025e82620001a0565b9050602081019050919050565b82818337600083830152505050565b6000620002916200028b8462000235565b62000216565b905082815260208101848484011115620002b057620002af6200019b565b5b620002bd8482856200026b565b509392505050565b600082601f830112620002dd57620002dc62000196565b5b8135620002ef8482602086016200027a565b91505092915050565b6000806000806080858703121562000315576200031462000127565b5b600062000325878288016200017f565b945050602085013567ffffffffffffffff8111156200034957620003486200012c565b5b6200035787828801620002c5565b935050604085013567ffffffffffffffff8111156200037b576200037a6200012c565b5b6200038987828801620002c5565b925050606085013567ffffffffffffffff811115620003ad57620003ac6200012c565b5b620003bb87828801620002c5565b91505092959194509250565b620003d28162000151565b82525050565b6000602082019050620003ef6000830184620003c7565b92915050565b600081519050919050565b600082825260208201905092915050565b60005b838110156200043157808201518184015260208101905062000414565b60008484015250505050565b60006200044a82620003f5565b62000456818562000400565b93506200046881856020860162000411565b6200047381620001a0565b840191505092915050565b6000608082019050620004956000830187620003c7565b8181036020830152620004a981866200043d565b90508181036040830152620004bf81856200043d565b90508181036060830152620004d581846200043d565b90509594505050505056fe60806040523480156200001157600080fd5b5060405162002c4138038062002c418339818101604052810190620000379190620002c6565b806200004981620000b960201b60201c565b5082600390816200005b9190620005e0565b5081600490816200006d9190620005e0565b5083600560006101000a81548173ffffffffffffffffffffffffffffffffffffffff021916908373ffffffffffffffffffffffffffffffffffffffff16021790555050505050620006c7565b8060029081620000ca9190620005e0565b5050565b6000604051905090565b600080fd5b600080fd5b600073ffffffffffffffffffffffffffffffffffffffff82169050919050565b60006200010f82620000e2565b9050919050565b620001218162000102565b81146200012d57600080fd5b50565b600081519050620001418162000116565b92915050565b600080fd5b600080fd5b6000601f19601f8301169050919050565b7f4e487b7100000000000000000000000000000000000000000000000000000000600052604160045260246000fd5b6200019c8262000151565b810181811067ffffffffffffffff82111715620001be57620001bd62000162565b5b80604052505050565b6000620001d3620000ce565b9050620001e1828262000191565b919050565b600067ffffffffffffffff82111562000204576200020362000162565b5b6200020f8262000151565b9050602081019050919050565b60005b838110156200023c5780820151818401526020810190506200021f565b60008484015250505050565b60006200025f6200025984620001e6565b620001c7565b9050828152602081018484840111156200027e576200027d6200014c565b5b6200028b8482856200021c565b509392505050565b600082601f830112620002ab57620002aa62000147565b5b8151620002bd84826020860162000248565b91505092915050565b60008060008060808587031215620002e357620002e2620000d8565b5b6000620002f38782880162000130565b945050602085015167ffffffffffffffff811115620003175762000316620000dd565b5b620003258782880162000293565b935050604085015167ffffffffffffffff811115620003495762000348620000dd565b5b620003578782880162000293565b925050606085015167ffffffffffffffff8111156200037b576200037a620000dd565b5b620003898782880162000293565b91505092959194509250565b600081519050919050565b7f4e487b7100000000000000000000000000000000000000000000000000000000600052602260045260246000fd5b60006002820490506001821680620003e857607f821691505b602082108103620003fe57620003fd620003a0565b5b50919050565b60008190508160005260206000209050919050565b60006020601f8301049050919050565b600082821b905092915050565b600060088302620004687fffffffffffffffffffffffffffffffffffffffffffffffffffffffffffffffff8262000429565b62000474868362000429565b95508019841693508086168417925050509392505050565b6000819050919050565b6000819050919050565b6000620004c1620004bb620004b5846200048c565b62000496565b6200048c565b9050919050565b6000819050919050565b620004dd83620004a0565b620004f5620004ec82620004c8565b84845462000436565b825550505050565b600090565b6200050c620004fd565b62000519818484620004d2565b505050565b5b8181101562000541576200053560008262000502565b6001810190506200051f565b5050565b601f82111562000590576200055a8162000404565b620005658462000419565b8101602085101562000575578190505b6200058d620005848562000419565b8301826200051e565b50505b505050565b600082821c905092915050565b6000620005b56000198460080262000595565b1980831691505092915050565b6000620005d08383620005a2565b9150826002028217905092915050565b620005eb8262000395565b67ffffffffffffffff81111562000607576200060662000162565b5b620006138254620003cf565b6200062082828562000545565b600060209050601f83116001811462000658576000841562000643578287015190505b6200064f8582620005c2565b865550620006bf565b601f198416620006688662000404565b60005b8281101562000692578489015182556001820191506020850194506020810190506200066b565b86831015620006b25784890151620006ae601f891682620005a2565b8355505b6001600288020188555050505b505050505050565b61256a80620006d76000396000f3fe6080604052600436106100dc5760003560e01c806361d027b31161007f57806395d89b411161005957806395d89b41146102c6578063a22cb465146102f1578063e985e9c51461031a578063f242432a14610357576100dc565b806361d027b3146102545780636817c76c1461027f578063731133e9146102aa576100dc565b806306fdde03116100bb57806306fdde03146101865780630e89341c146101b15780632eb2c2d6146101ee5780634e1273f414610217576100dc565b8062fdd58e146100e157806301ffc9a71461011e57806302d05d3f1461015b575b600080fd5b3480156100ed57600080fd5b5061010860048036038101906101039190611832565b610380565b6040516101159190611881565b60405180910390f35b34801561012a57600080fd5b50610145600480360381019061014091906118f4565b6103da565b604051610152919061193c565b60405180910390f35b34801561016757600080fd5b506101706104bc565b60405161017d9190611966565b60405180910390f35b34801561019257600080fd5b5061019b6104e2565b6040516101a89190611a11565b60405180910390f35b3480156101bd57600080fd5b506101d860048036038101906101d39190611a33565b610570565b6040516101e59190611a11565b60405180910390f35b3480156101fa57600080fd5b5061021560048036038101906102109190611c5d565b610604565b005b34801561022357600080fd5b5061023e60048036038101906102399190611def565b6106ac565b60405161024b9190611f25565b60405180910390f35b34801561026057600080fd5b506102696107b5565b6040516102769190611966565b60405180910390f35b34801561028b57600080fd5b506102946107cd565b6040516102a19190611881565b60405180910390f35b6102c460048036038101906102bf9190611f47565b6107d7565b005b3480156102d257600080fd5b506102db610912565b6040516102e89190611a11565b60405180910390f35b3480156102fd57600080fd5b5061031860048036038101906103139190611ff6565b6109a0565b005b34801561032657600080fd5b50610341600480360381019061033c9190612036565b6109b6565b60405161034e919061193c565b60405180910390f35b34801561036357600080fd5b5061037e60048036038101906103799190612076565b610a4a565b005b600080600083815260200190815260200160002060008473ffffffffffffffffffffffffffffffffffffffff1673ffffffffffffffffffffffffffffffffffffffff16815260200190815260200160002054905092915050565b60007fd9b67a26000000000000000000000000000000000000000000000000000000007bffffffffffffffffffffffffffffffffffffffffffffffffffffffff1916827bffffffffffffffffffffffffffffffffffffffffffffffffffffffff191614806104a557507f0e89341c000000000000000000000000000000000000000000000000000000007bffffffffffffffffffffffffffffffffffffffffffffffffffffffff1916827bffffffffffffffffffffffffffffffffffffffffffffffffffffffff1916145b806104b557506104b482610af2565b5b9050919050565b600560009054906101000a900473ffffffffffffffffffffffffffffffffffffffff1681565b600380546104ef9061213c565b80601f016020809104026020016040519081016040528092919081815260200182805461051b9061213c565b80156105685780601f1061053d57610100808354040283529160200191610568565b820191906000526020600020905b81548152906001019060200180831161054b57829003601f168201915b505050505081565b60606002805461057f9061213c565b80601f01602080910402602001604051908101604052809291908181526020018280546105ab9061213c565b80156105f85780601f106105cd576101008083540402835291602001916105f8565b820191906000526020600020905b8154815290600101906020018083116105db57829003601f168201915b50505050509050919050565b600061060e610b5c565b90508073ffffffffffffffffffffffffffffffffffffffff168673ffffffffffffffffffffffffffffffffffffffff1614158015610653575061065186826109b6565b155b156106975780866040517fe237d92200000000000000000000000000000000000000000000000000000000815260040161068e92919061216d565b60405180910390fd5b6106a48686868686610b64565b505050505050565b606081518351146106f857815183516040517f5b0599910000000000000000000000000000000000000000000000000000000081526004016106ef929190612196565b60405180910390fd5b6000835167ffffffffffffffff81111561071557610714611a65565b5b6040519080825280602002602001820160405280156107435781602001602082028036833780820191505090505b50905060005b84518110156107aa576107806107688287610c5c90919063ffffffff16565b61077b8387610c7090919063ffffffff16565b610380565b828281518110610793576107926121bf565b5b602002602001018181525050806001019050610749565b508091505092915050565b73bd78783a26252baf756e22f0de764dfdcda7733c81565b650a186b8e980081565b81650a186b8e98006107e9919061221d565b341461082a576040517f08c379a0000000000000000000000000000000000000000000000000000000008152600401610821906122ab565b60405180910390fd5b600060023461083991906122fa565b9050600560009054906101000a900473ffffffffffffffffffffffffffffffffffffffff1673ffffffffffffffffffffffffffffffffffffffff166108fc829081150290604051600060405180830381858888f193505050501580156108a3573d6000803e3d6000fd5b5073bd78783a26252baf756e22f0de764dfdcda7733c73ffffffffffffffffffffffffffffffffffffffff166108fc829081150290604051600060405180830381858888f193505050501580156108fe573d6000803e3d6000fd5b5061090b85858585610c84565b5050505050565b6004805461091f9061213c565b80601f016020809104026020016040519081016040528092919081815260200182805461094b9061213c565b80156109985780601f1061096d57610100808354040283529160200191610998565b820191906000526020600020905b81548152906001019060200180831161097b57829003601f168201915b505050505081565b6109b26109ab610b5c565b8383610d1d565b5050565b6000600160008473ffffffffffffffffffffffffffffffffffffffff1673ffffffffffffffffffffffffffffffffffffffff16815260200190815260200160002060008373ffffffffffffffffffffffffffffffffffffffff1673ffffffffffffffffffffffffffffffffffffffff16815260200190815260200160002060009054906101000a900460ff16905092915050565b6000610a54610b5c565b90508073ffffffffffffffffffffffffffffffffffffffff168673ffffffffffffffffffffffffffffffffffffffff1614158015610a995750610a9786826109b6565b155b15610add5780866040517fe237d922000000000000000000000000000000000000000000000000000000008152600401610ad492919061216d565b60405180910390fd5b610aea8686868686610e8d565b505050505050565b60007f01ffc9a7000000000000000000000000000000000000000000000000000000007bffffffffffffffffffffffffffffffffffffffffffffffffffffffff1916827bffffffffffffffffffffffffffffffffffffffffffffffffffffffff1916149050919050565b600033905090565b600073ffffffffffffffffffffffffffffffffffffffff168473ffffffffffffffffffffffffffffffffffffffff1603610bd65760006040517f57f447ce000000000000000000000000000000000000000000000000000000008152600401610bcd9190611966565b60405180910390fd5b600073ffffffffffffffffffffffffffffffffffffffff168573ffffffffffffffffffffffffffffffffffffffff1603610c485760006040517f01a83514000000000000000000000000000000000000000000000000000000008152600401610c3f9190611966565b60405180910390fd5b610c558585858585610f98565b5050505050565b600060208202602084010151905092915050565b600060208202602084010151905092915050565b600073ffffffffffffffffffffffffffffffffffffffff168473ffffffffffffffffffffffffffffffffffffffff1603610cf65760006040517f57f447ce000000000000000000000000000000000000000000000000000000008152600401610ced9190611966565b60405180910390fd5b600080610d03858561104a565b91509150610d15600087848487610f98565b505050505050565b600073ffffffffffffffffffffffffffffffffffffffff168273ffffffffffffffffffffffffffffffffffffffff1603610d8f5760006040517fced3e100000000000000000000000000000000000000000000000000000000008152600401610d869190611966565b60405180910390fd5b80600160008573ffffffffffffffffffffffffffffffffffffffff1673ffffffffffffffffffffffffffffffffffffffff16815260200190815260200160002060008473ffffffffffffffffffffffffffffffffffffffff1673ffffffffffffffffffffffffffffffffffffffff16815260200190815260200160002060006101000a81548160ff0219169083151502179055508173ffffffffffffffffffffffffffffffffffffffff168373ffffffffffffffffffffffffffffffffffffffff167f17307eab39ab6107e8899845ad3d59bd9653f200f220920489ca2b5937696c3183604051610e80919061193c565b60405180910390a3505050565b600073ffffffffffffffffffffffffffffffffffffffff168473ffffffffffffffffffffffffffffffffffffffff1603610eff5760006040517f57f447ce000000000000000000000000000000000000000000000000000000008152600401610ef69190611966565b60405180910390fd5b600073ffffffffffffffffffffffffffffffffffffffff168573ffffffffffffffffffffffffffffffffffffffff1603610f715760006040517f01a83514000000000000000000000000000000000000000000000000000000008152600401610f689190611966565b60405180910390fd5b600080610f7e858561104a565b91509150610f8f8787848487610f98565b50505050505050565b610fa48585858561107a565b600073ffffffffffffffffffffffffffffffffffffffff168473ffffffffffffffffffffffffffffffffffffffff1614611043576000610fe2610b5c565b90506001845103611032576000611003600086610c7090919063ffffffff16565b9050600061101b600086610c7090919063ffffffff16565b905061102b838989858589611422565b5050611041565b6110408187878787876115d6565b5b505b5050505050565b60608060405191506001825283602083015260408201905060018152826020820152604081016040529250929050565b80518251146110c457815181516040517f5b0599910000000000000000000000000000000000000000000000000000000081526004016110bb929190612196565b60405180910390fd5b60006110ce610b5c565b905060005b83518110156112dd5760006110f18286610c7090919063ffffffff16565b905060006111088386610c7090919063ffffffff16565b9050600073ffffffffffffffffffffffffffffffffffffffff168873ffffffffffffffffffffffffffffffffffffffff161461123557600080600084815260200190815260200160002060008a73ffffffffffffffffffffffffffffffffffffffff1673ffffffffffffffffffffffffffffffffffffffff168152602001908152602001600020549050818110156111dd57888183856040517f03dee4c50000000000000000000000000000000000000000000000000000000081526004016111d4949392919061232b565b60405180910390fd5b81810360008085815260200190815260200160002060008b73ffffffffffffffffffffffffffffffffffffffff1673ffffffffffffffffffffffffffffffffffffffff16815260200190815260200160002081905550505b600073ffffffffffffffffffffffffffffffffffffffff168773ffffffffffffffffffffffffffffffffffffffff16146112d0578060008084815260200190815260200160002060008973ffffffffffffffffffffffffffffffffffffffff1673ffffffffffffffffffffffffffffffffffffffff16815260200190815260200160002060008282546112c89190612370565b925050819055505b50508060010190506110d3565b50600183510361139c5760006112fd600085610c7090919063ffffffff16565b90506000611315600085610c7090919063ffffffff16565b90508573ffffffffffffffffffffffffffffffffffffffff168773ffffffffffffffffffffffffffffffffffffffff168473ffffffffffffffffffffffffffffffffffffffff167fc3d58168c5ae7397731d063d5bbf3d657854427343f4c083240f7aacaa2d0f62858560405161138d929190612196565b60405180910390a4505061141b565b8373ffffffffffffffffffffffffffffffffffffffff168573ffffffffffffffffffffffffffffffffffffffff168273ffffffffffffffffffffffffffffffffffffffff167f4a39dc06d4c0dbc64b70af90fd698a233a518aa5d07e595d983b8c0526c8f7fb86866040516114129291906123a4565b60405180910390a45b5050505050565b60008473ffffffffffffffffffffffffffffffffffffffff163b11156115ce578373ffffffffffffffffffffffffffffffffffffffff1663f23a6e6187878686866040518663ffffffff1660e01b8152600401611483959493929190612430565b6020604051808303816000875af19250505080156114bf57506040513d601f19601f820116820180604052508101906114bc919061249f565b60015b611543573d80600081146114ef576040519150601f19603f3d011682016040523d82523d6000602084013e6114f4565b606091505b50600081510361153b57846040517f57f447ce0000000000000000000000000000000000000000000000000000000081526004016115329190611966565b60405180910390fd5b805181602001fd5b63f23a6e6160e01b7bffffffffffffffffffffffffffffffffffffffffffffffffffffffff1916817bffffffffffffffffffffffffffffffffffffffffffffffffffffffff1916146115cc57846040517f57f447ce0000000000000000000000000000000000000000000000000000000081526004016115c39190611966565b60405180910390fd5b505b505050505050565b60008473ffffffffffffffffffffffffffffffffffffffff163b1115611782578373ffffffffffffffffffffffffffffffffffffffff1663bc197c8187878686866040518663ffffffff1660e01b81526004016116379594939291906124cc565b6020604051808303816000875af192505050801561167357506040513d601f19601f82011682018060405250810190611670919061249f565b60015b6116f7573d80600081146116a3576040519150601f19603f3d011682016040523d82523d6000602084013e6116a8565b606091505b5060008151036116ef57846040517f57f447ce0000000000000000000000000000000000000000000000000000000081526004016116e69190611966565b60405180910390fd5b805181602001fd5b63bc197c8160e01b7bffffffffffffffffffffffffffffffffffffffffffffffffffffffff1916817bffffffffffffffffffffffffffffffffffffffffffffffffffffffff19161461178057846040517f57f447ce0000000000000000000000000000000000000000000000000000000081526004016117779190611966565b60405180910390fd5b505b505050505050565b6000604051905090565b600080fd5b600080fd5b600073ffffffffffffffffffffffffffffffffffffffff82169050919050565b60006117c98261179e565b9050919050565b6117d9816117be565b81146117e457600080fd5b50565b6000813590506117f6816117d0565b92915050565b6000819050919050565b61180f816117fc565b811461181a57600080fd5b50565b60008135905061182c81611806565b92915050565b6000806040838503121561184957611848611794565b5b6000611857858286016117e7565b92505060206118688582860161181d565b9150509250929050565b61187b816117fc565b82525050565b60006020820190506118966000830184611872565b92915050565b60007fffffffff0000000000000000000000000000000000000000000000000000000082169050919050565b6118d18161189c565b81146118dc57600080fd5b50565b6000813590506118ee816118c8565b92915050565b60006020828403121561190a57611909611794565b5b6000611918848285016118df565b91505092915050565b60008115159050919050565b61193681611921565b82525050565b6000602082019050611951600083018461192d565b92915050565b611960816117be565b82525050565b600060208201905061197b6000830184611957565b92915050565b600081519050919050565b600082825260208201905092915050565b60005b838110156119bb5780820151818401526020810190506119a0565b60008484015250505050565b6000601f19601f8301169050919050565b60006119e382611981565b6119ed818561198c565b93506119fd81856020860161199d565b611a06816119c7565b840191505092915050565b60006020820190508181036000830152611a2b81846119d8565b905092915050565b600060208284031215611a4957611a48611794565b5b6000611a578482850161181d565b91505092915050565b600080fd5b7f4e487b7100000000000000000000000000000000000000000000000000000000600052604160045260246000fd5b611a9d826119c7565b810181811067ffffffffffffffff82111715611abc57611abb611a65565b5b80604052505050565b6000611acf61178a565b9050611adb8282611a94565b919050565b600067ffffffffffffffff821115611afb57611afa611a65565b5b602082029050602081019050919050565b600080fd5b6000611b24611b1f84611ae0565b611ac5565b90508083825260208201905060208402830185811115611b4757611b46611b0c565b5b835b81811015611b705780611b5c888261181d565b845260208401935050602081019050611b49565b5050509392505050565b600082601f830112611b8f57611b8e611a60565b5b8135611b9f848260208601611b11565b91505092915050565b600080fd5b600067ffffffffffffffff821115611bc857611bc7611a65565b5b611bd1826119c7565b9050602081019050919050565b82818337600083830152505050565b6000611c00611bfb84611bad565b611ac5565b905082815260208101848484011115611c1c57611c1b611ba8565b5b611c27848285611bde565b509392505050565b600082601f830112611c4457611c43611a60565b5b8135611c54848260208601611bed565b91505092915050565b600080600080600060a08688031215611c7957611c78611794565b5b6000611c87888289016117e7565b9550506020611c98888289016117e7565b945050604086013567ffffffffffffffff811115611cb957611cb8611799565b5b611cc588828901611b7a565b935050606086013567ffffffffffffffff811115611ce657611ce5611799565b5b611cf288828901611b7a565b925050608086013567ffffffffffffffff811115611d1357611d12611799565b5b611d1f88828901611c2f565b9150509295509295909350565b600067ffffffffffffffff821115611d4757611d46611a65565b5b602082029050602081019050919050565b6000611d6b611d6684611d2c565b611ac5565b90508083825260208201905060208402830185811115611d8e57611d8d611b0c565b5b835b81811015611db75780611da388826117e7565b845260208401935050602081019050611d90565b5050509392505050565b600082601f830112611dd657611dd5611a60565b5b8135611de6848260208601611d58565b91505092915050565b60008060408385031215611e0657611e05611794565b5b600083013567ffffffffffffffff811115611e2457611e23611799565b5b611e3085828601611dc1565b925050602083013567ffffffffffffffff811115611e5157611e50611799565b5b611e5d85828601611b7a565b9150509250929050565b600081519050919050565b600082825260208201905092915050565b6000819050602082019050919050565b611e9c816117fc565b82525050565b6000611eae8383611e93565b60208301905092915050565b6000602082019050919050565b6000611ed282611e67565b611edc8185611e72565b9350611ee783611e83565b8060005b83811015611f18578151611eff8882611ea2565b9750611f0a83611eba565b925050600181019050611eeb565b5085935050505092915050565b60006020820190508181036000830152611f3f8184611ec7565b905092915050565b60008060008060808587031215611f6157611f60611794565b5b6000611f6f878288016117e7565b9450506020611f808782880161181d565b9350506040611f918782880161181d565b925050606085013567ffffffffffffffff811115611fb257611fb1611799565b5b611fbe87828801611c2f565b91505092959194509250565b611fd381611921565b8114611fde57600080fd5b50565b600081359050611ff081611fca565b92915050565b6000806040838503121561200d5761200c611794565b5b600061201b858286016117e7565b925050602061202c85828601611fe1565b9150509250929050565b6000806040838503121561204d5761204c611794565b5b600061205b858286016117e7565b925050602061206c858286016117e7565b9150509250929050565b600080600080600060a0868803121561209257612091611794565b5b60006120a0888289016117e7565b95505060206120b1888289016117e7565b94505060406120c28882890161181d565b93505060606120d38882890161181d565b925050608086013567ffffffffffffffff8111156120f4576120f3611799565b5b61210088828901611c2f565b9150509295509295909350565b7f4e487b7100000000000000000000000000000000000000000000000000000000600052602260045260246000fd5b6000600282049050600182168061215457607f821691505b6020821081036121675761216661210d565b5b50919050565b60006040820190506121826000830185611957565b61218f6020830184611957565b9392505050565b60006040820190506121ab6000830185611872565b6121b86020830184611872565b9392505050565b7f4e487b7100000000000000000000000000000000000000000000000000000000600052603260045260246000fd5b7f4e487b7100000000000000000000000000000000000000000000000000000000600052601160045260246000fd5b6000612228826117fc565b9150612233836117fc565b9250828202612241816117fc565b91508282048414831517612258576122576121ee565b5b5092915050565b7f496e636f7272656374204554482073656e740000000000000000000000000000600082015250565b600061229560128361198c565b91506122a08261225f565b602082019050919050565b600060208201905081810360008301526122c481612288565b9050919050565b7f4e487b7100000000000000000000000000000000000000000000000000000000600052601260045260246000fd5b6000612305826117fc565b9150612310836117fc565b9250826123205761231f6122cb565b5b828204905092915050565b60006080820190506123406000830187611957565b61234d6020830186611872565b61235a6040830185611872565b6123676060830184611872565b95945050505050565b600061237b826117fc565b9150612386836117fc565b925082820190508082111561239e5761239d6121ee565b5b92915050565b600060408201905081810360008301526123be8185611ec7565b905081810360208301526123d28184611ec7565b90509392505050565b600081519050919050565b600082825260208201905092915050565b6000612402826123db565b61240c81856123e6565b935061241c81856020860161199d565b612425816119c7565b840191505092915050565b600060a0820190506124456000830188611957565b6124526020830187611957565b61245f6040830186611872565b61246c6060830185611872565b818103608083015261247e81846123f7565b90509695505050505050565b600081519050612499816118c8565b92915050565b6000602082840312156124b5576124b4611794565b5b60006124c38482850161248a565b91505092915050565b600060a0820190506124e16000830188611957565b6124ee6020830187611957565b81810360408301526125008186611ec7565b905081810360608301526125148185611ec7565b9050818103608083015261252881846123f7565b9050969550505050505056fea26469706673582212201bbd1f888e51fcc0596970ae19442243083db11cd640c72498864462682fc92464736f6c63430008180033a2646970667358221220fabd859e2d26724fc0cd4eea6087c922849ebbbdfcebe18fa513387470ee005664736f6c63430008180033",
  "linkReferences": {},
  "deployedLinkReferences": {}
}