{
  "_format": "hh-sol-artifact-1",
  "contractName": "PeaqPunks",
  "sourceName": "contracts/PeaqPunks.sol",
  "abi": [
    {
      "inputs": [],
      "stateMutability": "nonpayable",
      "type": "constructor"
    },
    {
      "inputs": [
        {
          "internalType": "address",
          "name": "sender",
          "type": "address"
        },
        {
          "internalType": "uint256",
          "name": "tokenId",
          "type": "uint256"
        },
        {
          "internalType": "address",
          "name": "owner",
          "type": "address"
        }
      ],
      "name": "ERC721IncorrectOwner",
      "type": "error"
    },
    {
      "inputs": [
        {
          "internalType": "address",
          "name": "operator",
          "type": "address"
        },
        {
          "internalType": "uint256",
          "name": "tokenId",
          "type": "uint256"
        }
      ],
      "name": "ERC721InsufficientApproval",
      "type": "error"
    },
    {
      "inputs": [
        {
          "internalType": "address",
          "name": "approver",
          "type": "address"
        }
      ],
      "name": "ERC721InvalidApprover",
      "type": "error"
    },
    {
      "inputs": [
        {
          "internalType": "address",
          "name": "operator",
          "type": "address"
        }
      ],
      "name": "ERC721InvalidOperator",
      "type": "error"
    },
    {
      "inputs": [
        {
          "internalType": "address",
          "name": "owner",
          "type": "address"
        }
      ],
      "name": "ERC721InvalidOwner",
      "type": "error"
    },
    {
      "inputs": [
        {
          "internalType": "address",
          "name": "receiver",
          "type": "address"
        }
      ],
      "name": "ERC721InvalidReceiver",
      "type": "error"
    },
    {
      "inputs": [
        {
          "internalType": "address",
          "name": "sender",
          "type": "address"
        }
      ],
      "name": "ERC721InvalidSender",
      "type": "error"
    },
    {
      "inputs": [
        {
          "internalType": "uint256",
          "name": "tokenId",
          "type": "uint256"
        }
      ],
      "name": "ERC721NonexistentToken",
      "type": "error"
    },
    {
      "inputs": [],
      "name": "EnforcedPause",
      "type": "error"
    },
    {
      "inputs": [],
      "name": "ExpectedPause",
      "type": "error"
    },
    {
      "inputs": [
        {
          "internalType": "address",
          "name": "owner",
          "type": "address"
        }
      ],
      "name": "OwnableInvalidOwner",
      "type": "error"
    },
    {
      "inputs": [
        {
          "internalType": "address",
          "name": "account",
          "type": "address"
        }
      ],
      "name": "OwnableUnauthorizedAccount",
      "type": "error"
    },
    {
      "anonymous": false,
      "inputs": [
        {
          "indexed": true,
          "internalType": "address",
          "name": "owner",
          "type": "address"
        },
        {
          "indexed": true,
          "internalType": "address",
          "name": "approved",
          "type": "address"
        },
        {
          "indexed": true,
          "internalType": "uint256",
          "name": "tokenId",
          "type": "uint256"
        }
      ],
      "name": "Approval",
      "type": "event"
    },
    {
      "anonymous": false,
      "inputs": [
        {
          "indexed": true,
          "internalType": "address",
          "name": "owner",
          "type": "address"
        },
        {
          "indexed": true,
          "internalType": "address",
          "name": "operator",
          "type": "address"
        },
        {
          "indexed": false,
          "internalType": "bool",
          "name": "approved",
          "type": "bool"
        }
      ],
      "name": "ApprovalForAll",
      "type": "event"
    },
    {
      "anonymous": false,
      "inputs": [
        {
          "indexed": false,
          "internalType": "address",
          "name": "owner",
          "type": "address"
        },
        {
          "indexed": false,
          "internalType": "uint256",
          "name": "tokenId",
          "type": "uint256"
        }
      ],
      "name": "Mint",
      "type": "event"
    },
    {
      "anonymous": false,
      "inputs": [
        {
          "indexed": true,
          "internalType": "address",
          "name": "previousOwner",
          "type": "address"
        },
        {
          "indexed": true,
          "internalType": "address",
          "name": "newOwner",
          "type": "address"
        }
      ],
      "name": "OwnershipTransferred",
      "type": "event"
    },
    {
      "anonymous": false,
      "inputs": [
        {
          "indexed": false,
          "internalType": "address",
          "name": "account",
          "type": "address"
        }
      ],
      "name": "Paused",
      "type": "event"
    },
    {
      "anonymous": false,
      "inputs": [
        {
          "indexed": true,
          "internalType": "address",
          "name": "from",
          "type": "address"
        },
        {
          "indexed": true,
          "internalType": "address",
          "name": "to",
          "type": "address"
        },
        {
          "indexed": true,
          "internalType": "uint256",
          "name": "tokenId",
          "type": "uint256"
        }
      ],
      "name": "Transfer",
      "type": "event"
    },
    {
      "anonymous": false,
      "inputs": [
        {
          "indexed": false,
          "internalType": "address",
          "name": "account",
          "type": "address"
        }
      ],
      "name": "Unpaused",
      "type": "event"
    },
    {
      "inputs": [
        {
          "internalType": "address",
          "name": "to",
          "type": "address"
        },
        {
          "internalType": "uint256",
          "name": "tokenId",
          "type": "uint256"
        }
      ],
      "name": "approve",
      "outputs": [],
      "stateMutability": "nonpayable",
      "type": "function"
    },
    {
      "inputs": [
        {
          "internalType": "address",
          "name": "owner",
          "type": "address"
        }
      ],
      "name": "balanceOf",
      "outputs": [
        {
          "internalType": "uint256",
          "name": "",
          "type": "uint256"
        }
      ],
      "stateMutability": "view",
      "type": "function"
    },
    {
      "inputs": [
        {
          "internalType": "uint256",
          "name": "tokenId",
          "type": "uint256"
        }
      ],
      "name": "getApproved",
      "outputs": [
        {
          "internalType": "address",
          "name": "",
          "type": "address"
        }
      ],
      "stateMutability": "view",
      "type": "function"
    },
    {
      "inputs": [
        {
          "internalType": "address",
          "name": "owner",
          "type": "address"
        },
        {
          "internalType": "address",
          "name": "operator",
          "type": "address"
        }
      ],
      "name": "isApprovedForAll",
      "outputs": [
        {
          "internalType": "bool",
          "name": "",
          "type": "bool"
        }
      ],
      "stateMutability": "view",
      "type": "function"
    },
    {
      "inputs": [
        {
          "internalType": "uint256",
          "name": "numberOfTokens",
          "type": "uint256"
        }
      ],
      "name": "mint",
      "outputs": [
        {
          "internalType": "uint256[]",
          "name": "",
          "type": "uint256[]"
        }
      ],
      "stateMutability": "payable",
      "type": "function"
    },
    {
      "inputs": [],
      "name": "name",
      "outputs": [
        {
          "internalType": "string",
          "name": "",
          "type": "string"
        }
      ],
      "stateMutability": "view",
      "type": "function"
    },
    {
      "inputs": [],
      "name": "owner",
      "outputs": [
        {
          "internalType": "address",
          "name": "",
          "type": "address"
        }
      ],
      "stateMutability": "view",
      "type": "function"
    },
    {
      "inputs": [
        {
          "internalType": "uint256",
          "name": "tokenId",
          "type": "uint256"
        }
      ],
      "name": "ownerOf",
      "outputs": [
        {
          "internalType": "address",
          "name": "",
          "type": "address"
        }
      ],
      "stateMutability": "view",
      "type": "function"
    },
    {
      "inputs": [],
      "name": "pause",
      "outputs": [],
      "stateMutability": "nonpayable",
      "type": "function"
    },
    {
      "inputs": [],
      "name": "paused",
      "outputs": [
        {
          "internalType": "bool",
          "name": "",
          "type": "bool"
        }
      ],
      "stateMutability": "view",
      "type": "function"
    },
    {
      "inputs": [],
      "name": "renounceOwnership",
      "outputs": [],
      "stateMutability": "nonpayable",
      "type": "function"
    },
    {
      "inputs": [
        {
          "internalType": "address",
          "name": "from",
          "type": "address"
        },
        {
          "internalType": "address",
          "name": "to",
          "type": "address"
        },
        {
          "internalType": "uint256",
          "name": "tokenId",
          "type": "uint256"
        }
      ],
      "name": "safeTransferFrom",
      "outputs": [],
      "stateMutability": "nonpayable",
      "type": "function"
    },
    {
      "inputs": [
        {
          "internalType": "address",
          "name": "from",
          "type": "address"
        },
        {
          "internalType": "address",
          "name": "to",
          "type": "address"
        },
        {
          "internalType": "uint256",
          "name": "tokenId",
          "type": "uint256"
        },
        {
          "internalType": "bytes",
          "name": "data",
          "type": "bytes"
        }
      ],
      "name": "safeTransferFrom",
      "outputs": [],
      "stateMutability": "nonpayable",
      "type": "function"
    },
    {
      "inputs": [
        {
          "internalType": "address",
          "name": "operator",
          "type": "address"
        },
        {
          "internalType": "bool",
          "name": "approved",
          "type": "bool"
        }
      ],
      "name": "setApprovalForAll",
      "outputs": [],
      "stateMutability": "nonpayable",
      "type": "function"
    },
    {
      "inputs": [
        {
          "internalType": "address",
          "name": "_punksDataAddress",
          "type": "address"
        }
      ],
      "name": "setPunksDataAddress",
      "outputs": [],
      "stateMutability": "nonpayable",
      "type": "function"
    },
    {
      "inputs": [
        {
          "internalType": "bytes4",
          "name": "interfaceId",
          "type": "bytes4"
        }
      ],
      "name": "supportsInterface",
      "outputs": [
        {
          "internalType": "bool",
          "name": "",
          "type": "bool"
        }
      ],
      "stateMutability": "view",
      "type": "function"
    },
    {
      "inputs": [],
      "name": "symbol",
      "outputs": [
        {
          "internalType": "string",
          "name": "",
          "type": "string"
        }
      ],
      "stateMutability": "view",
      "type": "function"
    },
    {
      "inputs": [
        {
          "internalType": "uint256",
          "name": "tokenId",
          "type": "uint256"
        }
      ],
      "name": "tokenURI",
      "outputs": [
        {
          "internalType": "string",
          "name": "",
          "type": "string"
        }
      ],
      "stateMutability": "view",
      "type": "function"
    },
    {
      "inputs": [],
      "name": "totalMinted",
      "outputs": [
        {
          "internalType": "uint256",
          "name": "",
          "type": "uint256"
        }
      ],
      "stateMutability": "view",
      "type": "function"
    },
    {
      "inputs": [
        {
          "internalType": "address",
          "name": "from",
          "type": "address"
        },
        {
          "internalType": "address",
          "name": "to",
          "type": "address"
        },
        {
          "internalType": "uint256",
          "name": "tokenId",
          "type": "uint256"
        }
      ],
      "name": "transferFrom",
      "outputs": [],
      "stateMutability": "nonpayable",
      "type": "function"
    },
    {
      "inputs": [
        {
          "internalType": "address",
          "name": "newOwner",
          "type": "address"
        }
      ],
      "name": "transferOwnership",
      "outputs": [],
      "stateMutability": "nonpayable",
      "type": "function"
    },
    {
      "inputs": [],
      "name": "unpause",
      "outputs": [],
      "stateMutability": "nonpayable",
      "type": "function"
    }
  ],
  "bytecode": "0x60806040523480156200001157600080fd5b50336040518060400160405280600981526020017f5065617150756e6b7300000000000000000000000000000000000000000000008152506040518060400160405280600481526020017f504541510000000000000000000000000000000000000000000000000000000081525081600090816200009091906200048d565b508060019081620000a291906200048d565b505050600073ffffffffffffffffffffffffffffffffffffffff168173ffffffffffffffffffffffffffffffffffffffff16036200011a5760006040517f1e4fbdf7000000000000000000000000000000000000000000000000000000008152600401620001119190620005b9565b60405180910390fd5b6200012b816200014d60201b60201c565b506000600660146101000a81548160ff021916908315150217905550620005d6565b6000600660009054906101000a900473ffffffffffffffffffffffffffffffffffffffff16905081600660006101000a81548173ffffffffffffffffffffffffffffffffffffffff021916908373ffffffffffffffffffffffffffffffffffffffff1602179055508173ffffffffffffffffffffffffffffffffffffffff168173ffffffffffffffffffffffffffffffffffffffff167f8be0079c531659141344cd1fd0a4f28419497f9722a3daafe3b4186f6b6457e060405160405180910390a35050565b600081519050919050565b7f4e487b7100000000000000000000000000000000000000000000000000000000600052604160045260246000fd5b7f4e487b7100000000000000000000000000000000000000000000000000000000600052602260045260246000fd5b600060028204905060018216806200029557607f821691505b602082108103620002ab57620002aa6200024d565b5b50919050565b60008190508160005260206000209050919050565b60006020601f8301049050919050565b600082821b905092915050565b600060088302620003157fffffffffffffffffffffffffffffffffffffffffffffffffffffffffffffffff82620002d6565b620003218683620002d6565b95508019841693508086168417925050509392505050565b6000819050919050565b6000819050919050565b60006200036e62000368620003628462000339565b62000343565b62000339565b9050919050565b6000819050919050565b6200038a836200034d565b620003a2620003998262000375565b848454620002e3565b825550505050565b600090565b620003b9620003aa565b620003c68184846200037f565b505050565b5b81811015620003ee57620003e2600082620003af565b600181019050620003cc565b5050565b601f8211156200043d576200040781620002b1565b6200041284620002c6565b8101602085101562000422578190505b6200043a6200043185620002c6565b830182620003cb565b50505b505050565b600082821c905092915050565b6000620004626000198460080262000442565b1980831691505092915050565b60006200047d83836200044f565b9150826002028217905092915050565b620004988262000213565b67ffffffffffffffff811115620004b457620004b36200021e565b5b620004c082546200027c565b620004cd828285620003f2565b600060209050601f831160018114620005055760008415620004f0578287015190505b620004fc85826200046f565b8655506200056c565b601f1984166200051586620002b1565b60005b828110156200053f5784890151825560018201915060208501945060208101905062000518565b868310156200055f57848901516200055b601f8916826200044f565b8355505b6001600288020188555050505b505050505050565b600073ffffffffffffffffffffffffffffffffffffffff82169050919050565b6000620005a18262000574565b9050919050565b620005b38162000594565b82525050565b6000602082019050620005d06000830184620005a8565b92915050565b613cff80620005e66000396000f3fe6080604052600436106101355760003560e01c8063715018a6116100ab578063a22cb4651161006f578063a22cb465146103f3578063a2309ff81461041c578063b88d4fde14610447578063c87b56dd14610470578063e985e9c5146104ad578063f2fde38b146104ea57610135565b8063715018a61461033f5780638456cb59146103565780638da5cb5b1461036d57806395d89b4114610398578063a0712d68146103c357610135565b806323b872dd116100fd57806323b872dd146102315780633f4ba83a1461025a57806342842e0e146102715780635c975abb1461029a5780636352211e146102c557806370a082311461030257610135565b806301ffc9a71461013a57806306fdde0314610177578063081812fc146101a2578063095ea7b3146101df5780630bda258514610208575b600080fd5b34801561014657600080fd5b50610161600480360381019061015c9190612803565b610513565b60405161016e919061284b565b60405180910390f35b34801561018357600080fd5b5061018c6105f5565b60405161019991906128f6565b60405180910390f35b3480156101ae57600080fd5b506101c960048036038101906101c4919061294e565b610687565b6040516101d691906129bc565b60405180910390f35b3480156101eb57600080fd5b5061020660048036038101906102019190612a03565b6106a3565b005b34801561021457600080fd5b5061022f600480360381019061022a9190612a43565b6106b9565b005b34801561023d57600080fd5b5061025860048036038101906102539190612a70565b610705565b005b34801561026657600080fd5b5061026f610807565b005b34801561027d57600080fd5b5061029860048036038101906102939190612a70565b610819565b005b3480156102a657600080fd5b506102af610839565b6040516102bc919061284b565b60405180910390f35b3480156102d157600080fd5b506102ec60048036038101906102e7919061294e565b610850565b6040516102f991906129bc565b60405180910390f35b34801561030e57600080fd5b5061032960048036038101906103249190612a43565b610862565b6040516103369190612ad2565b60405180910390f35b34801561034b57600080fd5b5061035461091c565b005b34801561036257600080fd5b5061036b610930565b005b34801561037957600080fd5b50610382610942565b60405161038f91906129bc565b60405180910390f35b3480156103a457600080fd5b506103ad61096c565b6040516103ba91906128f6565b60405180910390f35b6103dd60048036038101906103d8919061294e565b6109fe565b6040516103ea9190612bab565b60405180910390f35b3480156103ff57600080fd5b5061041a60048036038101906104159190612bf9565b610b9c565b005b34801561042857600080fd5b50610431610bb2565b60405161043e9190612ad2565b60405180910390f35b34801561045357600080fd5b5061046e60048036038101906104699190612d6e565b610bc3565b005b34801561047c57600080fd5b506104976004803603810190610492919061294e565b610be8565b6040516104a491906128f6565b60405180910390f35b3480156104b957600080fd5b506104d460048036038101906104cf9190612df1565b6110ff565b6040516104e1919061284b565b60405180910390f35b3480156104f657600080fd5b50610511600480360381019061050c9190612a43565b611193565b005b60007f80ac58cd000000000000000000000000000000000000000000000000000000007bffffffffffffffffffffffffffffffffffffffffffffffffffffffff1916827bffffffffffffffffffffffffffffffffffffffffffffffffffffffff191614806105de57507f5b5e139f000000000000000000000000000000000000000000000000000000007bffffffffffffffffffffffffffffffffffffffffffffffffffffffff1916827bffffffffffffffffffffffffffffffffffffffffffffffffffffffff1916145b806105ee57506105ed82611219565b5b9050919050565b60606000805461060490612e60565b80601f016020809104026020016040519081016040528092919081815260200182805461063090612e60565b801561067d5780601f106106525761010080835404028352916020019161067d565b820191906000526020600020905b81548152906001019060200180831161066057829003601f168201915b5050505050905090565b600061069282611283565b5061069c8261130b565b9050919050565b6106b582826106b0611348565b611350565b5050565b6106c1611362565b80600860006101000a81548173ffffffffffffffffffffffffffffffffffffffff021916908373ffffffffffffffffffffffffffffffffffffffff16021790555050565b600073ffffffffffffffffffffffffffffffffffffffff168273ffffffffffffffffffffffffffffffffffffffff16036107775760006040517f64a0ae9200000000000000000000000000000000000000000000000000000000815260040161076e91906129bc565b60405180910390fd5b600061078b8383610786611348565b6113e9565b90508373ffffffffffffffffffffffffffffffffffffffff168173ffffffffffffffffffffffffffffffffffffffff1614610801578382826040517f64283d7b0000000000000000000000000000000000000000000000000000000081526004016107f893929190612e91565b60405180910390fd5b50505050565b61080f611362565b610817611603565b565b61083483838360405180602001604052806000815250610bc3565b505050565b6000600660149054906101000a900460ff16905090565b600061085b82611283565b9050919050565b60008073ffffffffffffffffffffffffffffffffffffffff168273ffffffffffffffffffffffffffffffffffffffff16036108d55760006040517f89c62b640000000000000000000000000000000000000000000000000000000081526004016108cc91906129bc565b60405180910390fd5b600360008373ffffffffffffffffffffffffffffffffffffffff1673ffffffffffffffffffffffffffffffffffffffff168152602001908152602001600020549050919050565b610924611362565b61092e6000611666565b565b610938611362565b61094061172c565b565b6000600660009054906101000a900473ffffffffffffffffffffffffffffffffffffffff16905090565b60606001805461097b90612e60565b80601f01602080910402602001604051908101604052809291908181526020018280546109a790612e60565b80156109f45780601f106109c9576101008083540402835291602001916109f4565b820191906000526020600020905b8154815290600101906020018083116109d757829003601f168201915b5050505050905090565b6060610a0861178f565b600082118015610a19575060058211155b610a58576040517f08c379a0000000000000000000000000000000000000000000000000000000008152600401610a4f90612f3a565b60405180910390fd5b61271082610a6660076117d0565b610a709190612f89565b1115610ab1576040517f08c379a0000000000000000000000000000000000000000000000000000000008152600401610aa890613009565b60405180910390fd5b60008267ffffffffffffffff811115610acd57610acc612c43565b5b604051908082528060200260200182016040528015610afb5781602001602082028036833780820191505090505b50905060005b83811015610b92576000610b1560076117d0565b9050610b2133826117de565b610b2b60076117fc565b80838381518110610b3f57610b3e613029565b5b6020026020010181815250507f0f6798a560793a54c3bcfe86a93cde1e73087d944c0ea20544137d41213968853382604051610b7c929190613058565b60405180910390a1508080600101915050610b01565b5080915050919050565b610bae610ba7611348565b8383611812565b5050565b6000610bbe60076117d0565b905090565b610bce848484610705565b610be2610bd9611348565b85858585611981565b50505050565b6060600073ffffffffffffffffffffffffffffffffffffffff16610c0b83610850565b73ffffffffffffffffffffffffffffffffffffffff1603610c61576040517f08c379a0000000000000000000000000000000000000000000000000000000008152600401610c58906130cd565b60405180910390fd5b6000600860009054906101000a900473ffffffffffffffffffffffffffffffffffffffff16905060008173ffffffffffffffffffffffffffffffffffffffff166374beb047856040518263ffffffff1660e01b8152600401610cc3919061310a565b600060405180830381865afa158015610ce0573d6000803e3d6000fd5b505050506040513d6000823e3d601f19601f82011682018060405250810190610d0991906131c6565b905060008273ffffffffffffffffffffffffffffffffffffffff166376dfe297866040518263ffffffff1660e01b8152600401610d46919061310a565b600060405180830381865afa158015610d63573d6000803e3d6000fd5b505050506040513d6000823e3d601f19601f82011682018060405250810190610d8c91906131c6565b90506000610dcb610db46040518060a0016040528060628152602001613c2860629139611b32565b610dbd85611b32565b611b6090919063ffffffff16565b9050610dd681611bfa565b92506000610de383611b32565b90506000610e256040518060400160405280600181526020017f2c00000000000000000000000000000000000000000000000000000000000000815250611b32565b905060006001610e3e8385611c7690919063ffffffff16565b610e489190612f89565b67ffffffffffffffff811115610e6157610e60612c43565b5b604051908082528060200260200182016040528015610e9457816020015b6060815260200190600190039081610e7f5790505b50905060005b8151811015610f3857610f0d610f08610ee76040518060400160405280600181526020017f2000000000000000000000000000000000000000000000000000000000000000815250611b32565b610efa8688611d1e90919063ffffffff16565b611b6090919063ffffffff16565b611bfa565b828281518110610f2057610f1f613029565b5b60200260200101819052508080600101915050610e9a565b50606060005b82518110156110645781604051602001610f589190613297565b604051602081830303815290604052915060008103610f985781604051602001610f829190613305565b6040516020818303038152906040529150610fbb565b81604051602001610fa99190613373565b60405160208183030381529060405291505b81838281518110610fcf57610fce613029565b5b6020026020010151604051602001610fe892919061342d565b6040516020818303038152906040529150600183516110079190613467565b8103611034578160405160200161101e91906134e7565b6040516020818303038152906040529150611057565b816040516020016110459190613555565b60405160208183030381529060405291505b8080600101915050610f3e565b506000876040516020016110789190613635565b60405160208183030381529060405290506060806110958d611d38565b61109e84611e98565b856040516020016110b294939291906137d3565b60405160208183030381529060405290506110cc81611e98565b6040516020016110dc9190613889565b6040516020818303038152906040529050809a5050505050505050505050919050565b6000600560008473ffffffffffffffffffffffffffffffffffffffff1673ffffffffffffffffffffffffffffffffffffffff16815260200190815260200160002060008373ffffffffffffffffffffffffffffffffffffffff1673ffffffffffffffffffffffffffffffffffffffff16815260200190815260200160002060009054906101000a900460ff16905092915050565b61119b611362565b600073ffffffffffffffffffffffffffffffffffffffff168173ffffffffffffffffffffffffffffffffffffffff160361120d5760006040517f1e4fbdf700000000000000000000000000000000000000000000000000000000815260040161120491906129bc565b60405180910390fd5b61121681611666565b50565b60007f01ffc9a7000000000000000000000000000000000000000000000000000000007bffffffffffffffffffffffffffffffffffffffffffffffffffffffff1916827bffffffffffffffffffffffffffffffffffffffffffffffffffffffff1916149050919050565b60008061128f83612010565b9050600073ffffffffffffffffffffffffffffffffffffffff168173ffffffffffffffffffffffffffffffffffffffff160361130257826040517f7e2732890000000000000000000000000000000000000000000000000000000081526004016112f99190612ad2565b60405180910390fd5b80915050919050565b60006004600083815260200190815260200160002060009054906101000a900473ffffffffffffffffffffffffffffffffffffffff169050919050565b600033905090565b61135d838383600161204d565b505050565b61136a611348565b73ffffffffffffffffffffffffffffffffffffffff16611388610942565b73ffffffffffffffffffffffffffffffffffffffff16146113e7576113ab611348565b6040517f118cdaa70000000000000000000000000000000000000000000000000000000081526004016113de91906129bc565b60405180910390fd5b565b6000806113f584612010565b9050600073ffffffffffffffffffffffffffffffffffffffff168373ffffffffffffffffffffffffffffffffffffffff161461143757611436818486612212565b5b600073ffffffffffffffffffffffffffffffffffffffff168173ffffffffffffffffffffffffffffffffffffffff16146114c85761147960008560008061204d565b6001600360008373ffffffffffffffffffffffffffffffffffffffff1673ffffffffffffffffffffffffffffffffffffffff168152602001908152602001600020600082825403925050819055505b600073ffffffffffffffffffffffffffffffffffffffff168573ffffffffffffffffffffffffffffffffffffffff161461154b576001600360008773ffffffffffffffffffffffffffffffffffffffff1673ffffffffffffffffffffffffffffffffffffffff168152602001908152602001600020600082825401925050819055505b846002600086815260200190815260200160002060006101000a81548173ffffffffffffffffffffffffffffffffffffffff021916908373ffffffffffffffffffffffffffffffffffffffff160217905550838573ffffffffffffffffffffffffffffffffffffffff168273ffffffffffffffffffffffffffffffffffffffff167fddf252ad1be2c89b69c2b068fc378daa952ba7f163c4a11628f55a4df523b3ef60405160405180910390a4809150509392505050565b61160b6122d6565b6000600660146101000a81548160ff0219169083151502179055507f5db9ee0a495bf2e6ff9c91a7834c1ba4fdd244a5e8aa4e537bd38aeae4b073aa61164f611348565b60405161165c91906129bc565b60405180910390a1565b6000600660009054906101000a900473ffffffffffffffffffffffffffffffffffffffff16905081600660006101000a81548173ffffffffffffffffffffffffffffffffffffffff021916908373ffffffffffffffffffffffffffffffffffffffff1602179055508173ffffffffffffffffffffffffffffffffffffffff168173ffffffffffffffffffffffffffffffffffffffff167f8be0079c531659141344cd1fd0a4f28419497f9722a3daafe3b4186f6b6457e060405160405180910390a35050565b61173461178f565b6001600660146101000a81548160ff0219169083151502179055507f62e78cea01bee320cd4e420270b5ea74000d11b0c9f74754ebdbfc544b05a258611778611348565b60405161178591906129bc565b60405180910390a1565b611797610839565b156117ce576040517fd93c066500000000000000000000000000000000000000000000000000000000815260040160405180910390fd5b565b600081600001549050919050565b6117f8828260405180602001604052806000815250612316565b5050565b6001816000016000828254019250508190555050565b600073ffffffffffffffffffffffffffffffffffffffff168273ffffffffffffffffffffffffffffffffffffffff160361188357816040517f5b08ba1800000000000000000000000000000000000000000000000000000000815260040161187a91906129bc565b60405180910390fd5b80600560008573ffffffffffffffffffffffffffffffffffffffff1673ffffffffffffffffffffffffffffffffffffffff16815260200190815260200160002060008473ffffffffffffffffffffffffffffffffffffffff1673ffffffffffffffffffffffffffffffffffffffff16815260200190815260200160002060006101000a81548160ff0219169083151502179055508173ffffffffffffffffffffffffffffffffffffffff168373ffffffffffffffffffffffffffffffffffffffff167f17307eab39ab6107e8899845ad3d59bd9653f200f220920489ca2b5937696c3183604051611974919061284b565b60405180910390a3505050565b60008373ffffffffffffffffffffffffffffffffffffffff163b1115611b2b578273ffffffffffffffffffffffffffffffffffffffff1663150b7a02868685856040518563ffffffff1660e01b81526004016119e09493929190613900565b6020604051808303816000875af1925050508015611a1c57506040513d601f19601f82011682018060405250810190611a199190613961565b60015b611aa0573d8060008114611a4c576040519150601f19603f3d011682016040523d82523d6000602084013e611a51565b606091505b506000815103611a9857836040517f64a0ae92000000000000000000000000000000000000000000000000000000008152600401611a8f91906129bc565b60405180910390fd5b805181602001fd5b63150b7a0260e01b7bffffffffffffffffffffffffffffffffffffffffffffffffffffffff1916817bffffffffffffffffffffffffffffffffffffffffffffffffffffffff191614611b2957836040517f64a0ae92000000000000000000000000000000000000000000000000000000008152600401611b2091906129bc565b60405180910390fd5b505b5050505050565b611b3a61277d565b600060208301905060405180604001604052808451815260200182815250915050919050565b611b6861277d565b816000015183600001511015611b8057829050611bf4565b6000600190508260200151846020015114611bae578251602085015160208501518281208383201493505050505b8015611bef57826000015184600001818151611bca9190613467565b91508181525050826000015184602001818151611be79190612f89565b915081815250505b839150505b92915050565b60606000826000015167ffffffffffffffff811115611c1c57611c1b612c43565b5b6040519080825280601f01601f191660200182016040528015611c4e5781602001600182028036833780820191505090505b5090506000602082019050611c6c818560200151866000015161233a565b8192505050919050565b6000808260000151611c9a85600001518660200151866000015187602001516123b9565b611ca49190612f89565b90505b83600001518460200151611cbb9190612f89565b8111611d17578180611ccc9061398e565b9250508260000151611d06856020015183611ce79190613467565b8660000151611cf69190613467565b83866000015187602001516123b9565b611d109190612f89565b9050611ca7565b5092915050565b611d2661277d565b611d318383836124f9565b5092915050565b606060008203611d7f576040518060400160405280600181526020017f30000000000000000000000000000000000000000000000000000000000000008152509050611e93565b600082905060005b60008214611db1578080611d9a9061398e565b915050600a82611daa9190613a05565b9150611d87565b60008167ffffffffffffffff811115611dcd57611dcc612c43565b5b6040519080825280601f01601f191660200182016040528015611dff5781602001600182028036833780820191505090505b5090505b60008514611e8c57600182611e189190613467565b9150600a85611e279190613a36565b6030611e339190612f89565b60f81b818381518110611e4957611e48613029565b5b60200101907effffffffffffffffffffffffffffffffffffffffffffffffffffffffffffff1916908160001a905350600a85611e859190613a05565b9450611e03565b8093505050505b919050565b60606000825103611eba5760405180602001604052806000815250905061200b565b6000604051806060016040528060408152602001613c8a6040913990506000600360028551611ee99190612f89565b611ef39190613a05565b6004611eff9190613a67565b90506000602082611f109190612f89565b67ffffffffffffffff811115611f2957611f28612c43565b5b6040519080825280601f01601f191660200182016040528015611f5b5781602001600182028036833780820191505090505b509050818152600183018586518101602084015b81831015611fca576003830192508251603f8160121c168501518253600182019150603f81600c1c168501518253600182019150603f8160061c168501518253600182019150603f8116850151825360018201915050611f6f565b600389510660018114611fe45760028114611ff457611fff565b613d3d60f01b6002830352611fff565b603d60f81b60018303525b50505050508093505050505b919050565b60006002600083815260200190815260200160002060009054906101000a900473ffffffffffffffffffffffffffffffffffffffff169050919050565b80806120865750600073ffffffffffffffffffffffffffffffffffffffff168273ffffffffffffffffffffffffffffffffffffffff1614155b156121ba57600061209684611283565b9050600073ffffffffffffffffffffffffffffffffffffffff168373ffffffffffffffffffffffffffffffffffffffff161415801561210157508273ffffffffffffffffffffffffffffffffffffffff168173ffffffffffffffffffffffffffffffffffffffff1614155b8015612114575061211281846110ff565b155b1561215657826040517fa9fbf51f00000000000000000000000000000000000000000000000000000000815260040161214d91906129bc565b60405180910390fd5b81156121b857838573ffffffffffffffffffffffffffffffffffffffff168273ffffffffffffffffffffffffffffffffffffffff167f8c5be1e5ebec7d5bd14f71427d1e84f3dd0314c0f7b2291e5b200ac8c7c3b92560405160405180910390a45b505b836004600085815260200190815260200160002060006101000a81548173ffffffffffffffffffffffffffffffffffffffff021916908373ffffffffffffffffffffffffffffffffffffffff16021790555050505050565b61221d8383836125c3565b6122d157600073ffffffffffffffffffffffffffffffffffffffff168373ffffffffffffffffffffffffffffffffffffffff160361229257806040517f7e2732890000000000000000000000000000000000000000000000000000000081526004016122899190612ad2565b60405180910390fd5b81816040517f177e802f0000000000000000000000000000000000000000000000000000000081526004016122c8929190613058565b60405180910390fd5b505050565b6122de610839565b612314576040517f8dfc202b00000000000000000000000000000000000000000000000000000000815260040160405180910390fd5b565b6123208383612684565b61233561232b611348565b6000858585611981565b505050565b5b6020811061237957815183526020836123549190612f89565b92506020826123639190612f89565b91506020816123729190613467565b905061233b565b6000600182602061238a9190613467565b6101006123979190613bdc565b6123a19190613467565b90508019835116818551168181178652505050505050565b60008084905060008685116124e0576020851161248357600060018660206123e19190613467565b60086123ed9190613a67565b60026123f99190613bdc565b6124039190613467565b1960001b905060008186511690506000878a8a6124209190612f89565b61242a9190613467565b905060008386511690505b8281146124755781861061245c578a8a61244f9190612f89565b96505050505050506124f1565b85806124679061398e565b965050838651169050612435565b8596505050505050506124f1565b60008585209050600091505b858861249b9190613467565b82116124de57600086842090508082036124bb57839450505050506124f1565b6001846124c89190612f89565b93505081806124d69061398e565b92505061248f565b505b86866124ec9190612f89565b925050505b949350505050565b61250161277d565b600061251f85600001518660200151866000015187602001516123b9565b9050846020015183602001818152505084602001518161253f9190613467565b8360000181815250508460000151856020015161255c9190612f89565b81036125725760008560000181815250506125b8565b836000015183600001516125869190612f89565b856000018181516125979190613467565b915081815250508360000151816125ae9190612f89565b8560200181815250505b829150509392505050565b60008073ffffffffffffffffffffffffffffffffffffffff168373ffffffffffffffffffffffffffffffffffffffff161415801561267b57508273ffffffffffffffffffffffffffffffffffffffff168473ffffffffffffffffffffffffffffffffffffffff16148061263c575061263b84846110ff565b5b8061267a57508273ffffffffffffffffffffffffffffffffffffffff166126628361130b565b73ffffffffffffffffffffffffffffffffffffffff16145b5b90509392505050565b600073ffffffffffffffffffffffffffffffffffffffff168273ffffffffffffffffffffffffffffffffffffffff16036126f65760006040517f64a0ae920000000000000000000000000000000000000000000000000000000081526004016126ed91906129bc565b60405180910390fd5b6000612704838360006113e9565b9050600073ffffffffffffffffffffffffffffffffffffffff168173ffffffffffffffffffffffffffffffffffffffff16146127785760006040517f73c6ac6e00000000000000000000000000000000000000000000000000000000815260040161276f91906129bc565b60405180910390fd5b505050565b604051806040016040528060008152602001600081525090565b6000604051905090565b600080fd5b600080fd5b60007fffffffff0000000000000000000000000000000000000000000000000000000082169050919050565b6127e0816127ab565b81146127eb57600080fd5b50565b6000813590506127fd816127d7565b92915050565b600060208284031215612819576128186127a1565b5b6000612827848285016127ee565b91505092915050565b60008115159050919050565b61284581612830565b82525050565b6000602082019050612860600083018461283c565b92915050565b600081519050919050565b600082825260208201905092915050565b60005b838110156128a0578082015181840152602081019050612885565b60008484015250505050565b6000601f19601f8301169050919050565b60006128c882612866565b6128d28185612871565b93506128e2818560208601612882565b6128eb816128ac565b840191505092915050565b6000602082019050818103600083015261291081846128bd565b905092915050565b6000819050919050565b61292b81612918565b811461293657600080fd5b50565b60008135905061294881612922565b92915050565b600060208284031215612964576129636127a1565b5b600061297284828501612939565b91505092915050565b600073ffffffffffffffffffffffffffffffffffffffff82169050919050565b60006129a68261297b565b9050919050565b6129b68161299b565b82525050565b60006020820190506129d160008301846129ad565b92915050565b6129e08161299b565b81146129eb57600080fd5b50565b6000813590506129fd816129d7565b92915050565b60008060408385031215612a1a57612a196127a1565b5b6000612a28858286016129ee565b9250506020612a3985828601612939565b9150509250929050565b600060208284031215612a5957612a586127a1565b5b6000612a67848285016129ee565b91505092915050565b600080600060608486031215612a8957612a886127a1565b5b6000612a97868287016129ee565b9350506020612aa8868287016129ee565b9250506040612ab986828701612939565b9150509250925092565b612acc81612918565b82525050565b6000602082019050612ae76000830184612ac3565b92915050565b600081519050919050565b600082825260208201905092915050565b6000819050602082019050919050565b612b2281612918565b82525050565b6000612b348383612b19565b60208301905092915050565b6000602082019050919050565b6000612b5882612aed565b612b628185612af8565b9350612b6d83612b09565b8060005b83811015612b9e578151612b858882612b28565b9750612b9083612b40565b925050600181019050612b71565b5085935050505092915050565b60006020820190508181036000830152612bc58184612b4d565b905092915050565b612bd681612830565b8114612be157600080fd5b50565b600081359050612bf381612bcd565b92915050565b60008060408385031215612c1057612c0f6127a1565b5b6000612c1e858286016129ee565b9250506020612c2f85828601612be4565b9150509250929050565b600080fd5b600080fd5b7f4e487b7100000000000000000000000000000000000000000000000000000000600052604160045260246000fd5b612c7b826128ac565b810181811067ffffffffffffffff82111715612c9a57612c99612c43565b5b80604052505050565b6000612cad612797565b9050612cb98282612c72565b919050565b600067ffffffffffffffff821115612cd957612cd8612c43565b5b612ce2826128ac565b9050602081019050919050565b82818337600083830152505050565b6000612d11612d0c84612cbe565b612ca3565b905082815260208101848484011115612d2d57612d2c612c3e565b5b612d38848285612cef565b509392505050565b600082601f830112612d5557612d54612c39565b5b8135612d65848260208601612cfe565b91505092915050565b60008060008060808587031215612d8857612d876127a1565b5b6000612d96878288016129ee565b9450506020612da7878288016129ee565b9350506040612db887828801612939565b925050606085013567ffffffffffffffff811115612dd957612dd86127a6565b5b612de587828801612d40565b91505092959194509250565b60008060408385031215612e0857612e076127a1565b5b6000612e16858286016129ee565b9250506020612e27858286016129ee565b9150509250929050565b7f4e487b7100000000000000000000000000000000000000000000000000000000600052602260045260246000fd5b60006002820490506001821680612e7857607f821691505b602082108103612e8b57612e8a612e31565b5b50919050565b6000606082019050612ea660008301866129ad565b612eb36020830185612ac3565b612ec060408301846129ad565b949350505050565b7f43616e206f6e6c79206d696e74206265747765656e203120616e64203520746f60008201527f6b656e7320617420612074696d652e0000000000000000000000000000000000602082015250565b6000612f24602f83612871565b9150612f2f82612ec8565b604082019050919050565b60006020820190508181036000830152612f5381612f17565b9050919050565b7f4e487b7100000000000000000000000000000000000000000000000000000000600052601160045260246000fd5b6000612f9482612918565b9150612f9f83612918565b9250828201905080821115612fb757612fb6612f5a565b5b92915050565b7f4d6178696d756d2076616c756520726561636865642e00000000000000000000600082015250565b6000612ff3601683612871565b9150612ffe82612fbd565b602082019050919050565b6000602082019050818103600083015261302281612fe6565b9050919050565b7f4e487b7100000000000000000000000000000000000000000000000000000000600052603260045260246000fd5b600060408201905061306d60008301856129ad565b61307a6020830184612ac3565b9392505050565b7f4e6f6e2d6578697374656e7420746f6b656e732e000000000000000000000000600082015250565b60006130b7601483612871565b91506130c282613081565b602082019050919050565b600060208201905081810360008301526130e6816130aa565b9050919050565b600061ffff82169050919050565b613104816130ed565b82525050565b600060208201905061311f60008301846130fb565b92915050565b600067ffffffffffffffff8211156131405761313f612c43565b5b613149826128ac565b9050602081019050919050565b600061316961316484613125565b612ca3565b90508281526020810184848401111561318557613184612c3e565b5b613190848285612882565b509392505050565b600082601f8301126131ad576131ac612c39565b5b81516131bd848260208601613156565b91505092915050565b6000602082840312156131dc576131db6127a1565b5b600082015167ffffffffffffffff8111156131fa576131f96127a6565b5b61320684828501613198565b91505092915050565b600081905092915050565b600061322582612866565b61322f818561320f565b935061323f818560208601612882565b80840191505092915050565b7f7b00000000000000000000000000000000000000000000000000000000000000600082015250565b600061328160018361320f565b915061328c8261324b565b600182019050919050565b60006132a3828461321a565b91506132ae82613274565b915081905092915050565b7f2274726169745f74797065223a202254797065222c0000000000000000000000600082015250565b60006132ef60158361320f565b91506132fa826132b9565b601582019050919050565b6000613311828461321a565b915061331c826132e2565b915081905092915050565b7f2274726169745f74797065223a20224163636573736f7279222c000000000000600082015250565b600061335d601a8361320f565b915061336882613327565b601a82019050919050565b600061337f828461321a565b915061338a82613350565b915081905092915050565b7f2276616c7565223a202200000000000000000000000000000000000000000000600082015250565b60006133cb600a8361320f565b91506133d682613395565b600a82019050919050565b7f2200000000000000000000000000000000000000000000000000000000000000600082015250565b600061341760018361320f565b9150613422826133e1565b600182019050919050565b6000613439828561321a565b9150613444826133be565b9150613450828461321a565b915061345b8261340a565b91508190509392505050565b600061347282612918565b915061347d83612918565b925082820390508181111561349557613494612f5a565b5b92915050565b7f7d00000000000000000000000000000000000000000000000000000000000000600082015250565b60006134d160018361320f565b91506134dc8261349b565b600182019050919050565b60006134f3828461321a565b91506134fe826134c4565b915081905092915050565b7f7d2c000000000000000000000000000000000000000000000000000000000000600082015250565b600061353f60028361320f565b915061354a82613509565b600282019050919050565b6000613561828461321a565b915061356c82613532565b915081905092915050565b7f3c73766720786d6c6e733d22687474703a2f2f7777772e77332e6f72672f323060008201527f30302f737667222076657273696f6e3d22312e32222076696577426f783d223060208201527f203020323420323422207374796c653d226261636b67726f756e642d636f6c6f60408201527f723a20233635363546463b223e00000000000000000000000000000000000000606082015250565b600061361f606d8361320f565b915061362a82613577565b606d82019050919050565b600061364082613612565b915061364c828461321a565b915081905092915050565b7f7b226e616d65223a20225065617150756e6b7320230000000000000000000000600082015250565b600061368d60158361320f565b915061369882613657565b601582019050919050565b7f222c20226465736372697074696f6e223a20224f6e636861696e2050756e6b7360008201527f206f6e20506561712e222c2022696d616765223a2022646174613a696d61676560208201527f2f7376672b786d6c3b6261736536342c00000000000000000000000000000000604082015250565b600061372560508361320f565b9150613730826136a3565b605082019050919050565b7f222c202261747472696275746573223a205b0000000000000000000000000000600082015250565b600061377160128361320f565b915061377c8261373b565b601282019050919050565b7f5d7d000000000000000000000000000000000000000000000000000000000000600082015250565b60006137bd60028361320f565b91506137c882613787565b600282019050919050565b60006137df828761321a565b91506137ea82613680565b91506137f6828661321a565b915061380182613718565b915061380d828561321a565b915061381882613764565b9150613824828461321a565b915061382f826137b0565b915081905095945050505050565b7f646174613a6170706c69636174696f6e2f6a736f6e3b6261736536342c000000600082015250565b6000613873601d8361320f565b915061387e8261383d565b601d82019050919050565b600061389482613866565b91506138a0828461321a565b915081905092915050565b600081519050919050565b600082825260208201905092915050565b60006138d2826138ab565b6138dc81856138b6565b93506138ec818560208601612882565b6138f5816128ac565b840191505092915050565b600060808201905061391560008301876129ad565b61392260208301866129ad565b61392f6040830185612ac3565b818103606083015261394181846138c7565b905095945050505050565b60008151905061395b816127d7565b92915050565b600060208284031215613977576139766127a1565b5b60006139858482850161394c565b91505092915050565b600061399982612918565b91507fffffffffffffffffffffffffffffffffffffffffffffffffffffffffffffffff82036139cb576139ca612f5a565b5b600182019050919050565b7f4e487b7100000000000000000000000000000000000000000000000000000000600052601260045260246000fd5b6000613a1082612918565b9150613a1b83612918565b925082613a2b57613a2a6139d6565b5b828204905092915050565b6000613a4182612918565b9150613a4c83612918565b925082613a5c57613a5b6139d6565b5b828206905092915050565b6000613a7282612918565b9150613a7d83612918565b9250828202613a8b81612918565b91508282048414831517613aa257613aa1612f5a565b5b5092915050565b60008160011c9050919050565b6000808291508390505b6001851115613b0057808604811115613adc57613adb612f5a565b5b6001851615613aeb5780820291505b8081029050613af985613aa9565b9450613ac0565b94509492505050565b600082613b195760019050613bd5565b81613b275760009050613bd5565b8160018114613b3d5760028114613b4757613b76565b6001915050613bd5565b60ff841115613b5957613b58612f5a565b5b8360020a915084821115613b7057613b6f612f5a565b5b50613bd5565b5060208310610133831016604e8410600b8410161715613bab5782820a905083811115613ba657613ba5612f5a565b5b613bd5565b613bb88484846001613ab6565b92509050818404811115613bcf57613bce612f5a565b5b81810290505b9392505050565b6000613be782612918565b9150613bf283612918565b9250613c1f7fffffffffffffffffffffffffffffffffffffffffffffffffffffffffffffffff8484613b09565b90509291505056fe646174613a696d6167652f7376672b786d6c3b757466382c3c73766720786d6c6e733d22687474703a2f2f7777772e77332e6f72672f323030302f737667222076657273696f6e3d22312e32222076696577426f783d22302030203234203234223e4142434445464748494a4b4c4d4e4f505152535455565758595a6162636465666768696a6b6c6d6e6f707172737475767778797a303132333435363738392b2fa2646970667358221220b783d960c7e98267c4be9cf8fc4f7db50e436d7369b79ef0191a36d60df264b564736f6c63430008180033",
  "linkReferences": {},
  "deployedLinkReferences": {}
}