{
  "_format": "hh-sol-artifact-1",
  "contractName": "Enjoyr",
  "sourceName": "contracts/EnjoyHigher.sol",
  "abi": [
    {
      "inputs": [
        {
          "internalType": "string",
          "name": "_name",
          "type": "string"
        },
        {
          "internalType": "string",
          "name": "_symbol",
          "type": "string"
        },
        {
          "internalType": "address",
          "name": "_tokenAddress",
          "type": "address"
        }
      ],
      "stateMutability": "nonpayable",
      "type": "constructor"
    },
    {
      "inputs": [
        {
          "internalType": "address",
          "name": "sender",
          "type": "address"
        },
        {
          "internalType": "uint256",
          "name": "balance",
          "type": "uint256"
        },
        {
          "internalType": "uint256",
          "name": "needed",
          "type": "uint256"
        },
        {
          "internalType": "uint256",
          "name": "tokenId",
          "type": "uint256"
        }
      ],
      "name": "ERC1155InsufficientBalance",
      "type": "error"
    },
    {
      "inputs": [
        {
          "internalType": "address",
          "name": "approver",
          "type": "address"
        }
      ],
      "name": "ERC1155InvalidApprover",
      "type": "error"
    },
    {
      "inputs": [
        {
          "internalType": "uint256",
          "name": "idsLength",
          "type": "uint256"
        },
        {
          "internalType": "uint256",
          "name": "valuesLength",
          "type": "uint256"
        }
      ],
      "name": "ERC1155InvalidArrayLength",
      "type": "error"
    },
    {
      "inputs": [
        {
          "internalType": "address",
          "name": "operator",
          "type": "address"
        }
      ],
      "name": "ERC1155InvalidOperator",
      "type": "error"
    },
    {
      "inputs": [
        {
          "internalType": "address",
          "name": "receiver",
          "type": "address"
        }
      ],
      "name": "ERC1155InvalidReceiver",
      "type": "error"
    },
    {
      "inputs": [
        {
          "internalType": "address",
          "name": "sender",
          "type": "address"
        }
      ],
      "name": "ERC1155InvalidSender",
      "type": "error"
    },
    {
      "inputs": [
        {
          "internalType": "address",
          "name": "operator",
          "type": "address"
        },
        {
          "internalType": "address",
          "name": "owner",
          "type": "address"
        }
      ],
      "name": "ERC1155MissingApprovalForAll",
      "type": "error"
    },
    {
      "inputs": [
        {
          "internalType": "address",
          "name": "owner",
          "type": "address"
        }
      ],
      "name": "OwnableInvalidOwner",
      "type": "error"
    },
    {
      "inputs": [
        {
          "internalType": "address",
          "name": "account",
          "type": "address"
        }
      ],
      "name": "OwnableUnauthorizedAccount",
      "type": "error"
    },
    {
      "anonymous": false,
      "inputs": [
        {
          "indexed": true,
          "internalType": "address",
          "name": "account",
          "type": "address"
        },
        {
          "indexed": true,
          "internalType": "address",
          "name": "operator",
          "type": "address"
        },
        {
          "indexed": false,
          "internalType": "bool",
          "name": "approved",
          "type": "bool"
        }
      ],
      "name": "ApprovalForAll",
      "type": "event"
    },
    {
      "anonymous": false,
      "inputs": [
        {
          "indexed": true,
          "internalType": "address",
          "name": "owner",
          "type": "address"
        },
        {
          "indexed": false,
          "internalType": "uint256",
          "name": "amount",
          "type": "uint256"
        }
      ],
      "name": "ETHWithdrawn",
      "type": "event"
    },
    {
      "anonymous": false,
      "inputs": [
        {
          "indexed": true,
          "internalType": "address",
          "name": "previousOwner",
          "type": "address"
        },
        {
          "indexed": true,
          "internalType": "address",
          "name": "newOwner",
          "type": "address"
        }
      ],
      "name": "OwnershipTransferred",
      "type": "event"
    },
    {
      "anonymous": false,
      "inputs": [
        {
          "indexed": true,
          "internalType": "uint256",
          "name": "tokenId",
          "type": "uint256"
        },
        {
          "indexed": true,
          "internalType": "address",
          "name": "creatorAddress",
          "type": "address"
        },
        {
          "indexed": false,
          "internalType": "string",
          "name": "metadataURI",
          "type": "string"
        },
        {
          "indexed": false,
          "internalType": "uint256",
          "name": "creationTime",
          "type": "uint256"
        }
      ],
      "name": "TokenCreated",
      "type": "event"
    },
    {
      "anonymous": false,
      "inputs": [
        {
          "indexed": false,
          "internalType": "uint256",
          "name": "ethAmount",
          "type": "uint256"
        },
        {
          "indexed": false,
          "internalType": "uint256",
          "name": "tokensBurned",
          "type": "uint256"
        }
      ],
      "name": "TokensBurned",
      "type": "event"
    },
    {
      "anonymous": false,
      "inputs": [
        {
          "indexed": true,
          "internalType": "uint256",
          "name": "tokenId",
          "type": "uint256"
        },
        {
          "indexed": true,
          "internalType": "address",
          "name": "minter",
          "type": "address"
        },
        {
          "indexed": true,
          "internalType": "address",
          "name": "creator",
          "type": "address"
        },
        {
          "indexed": false,
          "internalType": "uint256",
          "name": "editions",
          "type": "uint256"
        },
        {
          "indexed": false,
          "internalType": "uint256",
          "name": "fee",
          "type": "uint256"
        }
      ],
      "name": "TokensMinted",
      "type": "event"
    },
    {
      "anonymous": false,
      "inputs": [
        {
          "indexed": true,
          "internalType": "address",
          "name": "user",
          "type": "address"
        },
        {
          "indexed": false,
          "internalType": "uint256",
          "name": "ethAmount",
          "type": "uint256"
        },
        {
          "indexed": false,
          "internalType": "uint256",
          "name": "tokensReceived",
          "type": "uint256"
        }
      ],
      "name": "TokensSwapped",
      "type": "event"
    },
    {
      "anonymous": false,
      "inputs": [
        {
          "indexed": true,
          "internalType": "address",
          "name": "operator",
          "type": "address"
        },
        {
          "indexed": true,
          "internalType": "address",
          "name": "from",
          "type": "address"
        },
        {
          "indexed": true,
          "internalType": "address",
          "name": "to",
          "type": "address"
        },
        {
          "indexed": false,
          "internalType": "uint256[]",
          "name": "ids",
          "type": "uint256[]"
        },
        {
          "indexed": false,
          "internalType": "uint256[]",
          "name": "values",
          "type": "uint256[]"
        }
      ],
      "name": "TransferBatch",
      "type": "event"
    },
    {
      "anonymous": false,
      "inputs": [
        {
          "indexed": true,
          "internalType": "address",
          "name": "operator",
          "type": "address"
        },
        {
          "indexed": true,
          "internalType": "address",
          "name": "from",
          "type": "address"
        },
        {
          "indexed": true,
          "internalType": "address",
          "name": "to",
          "type": "address"
        },
        {
          "indexed": false,
          "internalType": "uint256",
          "name": "id",
          "type": "uint256"
        },
        {
          "indexed": false,
          "internalType": "uint256",
          "name": "value",
          "type": "uint256"
        }
      ],
      "name": "TransferSingle",
      "type": "event"
    },
    {
      "anonymous": false,
      "inputs": [
        {
          "indexed": false,
          "internalType": "string",
          "name": "value",
          "type": "string"
        },
        {
          "indexed": true,
          "internalType": "uint256",
          "name": "id",
          "type": "uint256"
        }
      ],
      "name": "URI",
      "type": "event"
    },
    {
      "stateMutability": "payable",
      "type": "fallback"
    },
    {
      "inputs": [],
      "name": "MINT_FEE_SINGLE",
      "outputs": [
        {
          "internalType": "uint256",
          "name": "",
          "type": "uint256"
        }
      ],
      "stateMutability": "view",
      "type": "function"
    },
    {
      "inputs": [],
      "name": "ROUTER_ADDRESS",
      "outputs": [
        {
          "internalType": "address",
          "name": "",
          "type": "address"
        }
      ],
      "stateMutability": "view",
      "type": "function"
    },
    {
      "inputs": [],
      "name": "TOKEN",
      "outputs": [
        {
          "internalType": "address",
          "name": "",
          "type": "address"
        }
      ],
      "stateMutability": "view",
      "type": "function"
    },
    {
      "inputs": [],
      "name": "TOKEN_LIFESPAN",
      "outputs": [
        {
          "internalType": "uint256",
          "name": "",
          "type": "uint256"
        }
      ],
      "stateMutability": "view",
      "type": "function"
    },
    {
      "inputs": [],
      "name": "WETH",
      "outputs": [
        {
          "internalType": "address",
          "name": "",
          "type": "address"
        }
      ],
      "stateMutability": "view",
      "type": "function"
    },
    {
      "inputs": [
        {
          "internalType": "address",
          "name": "creatorAddress",
          "type": "address"
        },
        {
          "internalType": "string",
          "name": "metadataURI",
          "type": "string"
        }
      ],
      "name": "addToken",
      "outputs": [],
      "stateMutability": "nonpayable",
      "type": "function"
    },
    {
      "inputs": [
        {
          "internalType": "address",
          "name": "account",
          "type": "address"
        },
        {
          "internalType": "uint256",
          "name": "id",
          "type": "uint256"
        }
      ],
      "name": "balanceOf",
      "outputs": [
        {
          "internalType": "uint256",
          "name": "",
          "type": "uint256"
        }
      ],
      "stateMutability": "view",
      "type": "function"
    },
    {
      "inputs": [
        {
          "internalType": "address[]",
          "name": "accounts",
          "type": "address[]"
        },
        {
          "internalType": "uint256[]",
          "name": "ids",
          "type": "uint256[]"
        }
      ],
      "name": "balanceOfBatch",
      "outputs": [
        {
          "internalType": "uint256[]",
          "name": "",
          "type": "uint256[]"
        }
      ],
      "stateMutability": "view",
      "type": "function"
    },
    {
      "inputs": [
        {
          "internalType": "uint256",
          "name": "",
          "type": "uint256"
        }
      ],
      "name": "burnedTokens",
      "outputs": [
        {
          "internalType": "uint256",
          "name": "",
          "type": "uint256"
        }
      ],
      "stateMutability": "view",
      "type": "function"
    },
    {
      "inputs": [
        {
          "internalType": "uint256",
          "name": "",
          "type": "uint256"
        }
      ],
      "name": "creatorFeesPerToken",
      "outputs": [
        {
          "internalType": "uint256",
          "name": "",
          "type": "uint256"
        }
      ],
      "stateMutability": "view",
      "type": "function"
    },
    {
      "inputs": [
        {
          "internalType": "uint256",
          "name": "id",
          "type": "uint256"
        }
      ],
      "name": "exists",
      "outputs": [
        {
          "internalType": "bool",
          "name": "",
          "type": "bool"
        }
      ],
      "stateMutability": "view",
      "type": "function"
    },
    {
      "inputs": [
        {
          "internalType": "uint256",
          "name": "tokenId",
          "type": "uint256"
        }
      ],
      "name": "getBurnedTokens",
      "outputs": [
        {
          "internalType": "uint256",
          "name": "",
          "type": "uint256"
        }
      ],
      "stateMutability": "view",
      "type": "function"
    },
    {
      "inputs": [
        {
          "internalType": "uint256",
          "name": "tokenId",
          "type": "uint256"
        }
      ],
      "name": "getCreatorFees",
      "outputs": [
        {
          "internalType": "uint256",
          "name": "",
          "type": "uint256"
        }
      ],
      "stateMutability": "view",
      "type": "function"
    },
    {
      "inputs": [
        {
          "internalType": "uint256",
          "name": "tokenId",
          "type": "uint256"
        }
      ],
      "name": "getMintCount",
      "outputs": [
        {
          "internalType": "uint256",
          "name": "",
          "type": "uint256"
        }
      ],
      "stateMutability": "view",
      "type": "function"
    },
    {
      "inputs": [
        {
          "internalType": "uint256",
          "name": "tokenId",
          "type": "uint256"
        }
      ],
      "name": "getRetainedFees",
      "outputs": [
        {
          "internalType": "uint256",
          "name": "",
          "type": "uint256"
        }
      ],
      "stateMutability": "view",
      "type": "function"
    },
    {
      "inputs": [
        {
          "internalType": "uint256",
          "name": "tokenId",
          "type": "uint256"
        }
      ],
      "name": "getTokenCreator",
      "outputs": [
        {
          "internalType": "address",
          "name": "",
          "type": "address"
        }
      ],
      "stateMutability": "view",
      "type": "function"
    },
    {
      "inputs": [
        {
          "internalType": "address",
          "name": "account",
          "type": "address"
        },
        {
          "internalType": "address",
          "name": "operator",
          "type": "address"
        }
      ],
      "name": "isApprovedForAll",
      "outputs": [
        {
          "internalType": "bool",
          "name": "",
          "type": "bool"
        }
      ],
      "stateMutability": "view",
      "type": "function"
    },
    {
      "inputs": [
        {
          "internalType": "uint256",
          "name": "tokenId",
          "type": "uint256"
        },
        {
          "internalType": "uint256",
          "name": "editions",
          "type": "uint256"
        }
      ],
      "name": "mint",
      "outputs": [],
      "stateMutability": "payable",
      "type": "function"
    },
    {
      "inputs": [
        {
          "internalType": "uint256",
          "name": "",
          "type": "uint256"
        }
      ],
      "name": "mintCount",
      "outputs": [
        {
          "internalType": "uint256",
          "name": "",
          "type": "uint256"
        }
      ],
      "stateMutability": "view",
      "type": "function"
    },
    {
      "inputs": [],
      "name": "name",
      "outputs": [
        {
          "internalType": "string",
          "name": "",
          "type": "string"
        }
      ],
      "stateMutability": "view",
      "type": "function"
    },
    {
      "inputs": [],
      "name": "owner",
      "outputs": [
        {
          "internalType": "address",
          "name": "",
          "type": "address"
        }
      ],
      "stateMutability": "view",
      "type": "function"
    },
    {
      "inputs": [],
      "name": "renounceOwnership",
      "outputs": [],
      "stateMutability": "nonpayable",
      "type": "function"
    },
    {
      "inputs": [
        {
          "internalType": "uint256",
          "name": "",
          "type": "uint256"
        }
      ],
      "name": "retainedFeesPerToken",
      "outputs": [
        {
          "internalType": "uint256",
          "name": "",
          "type": "uint256"
        }
      ],
      "stateMutability": "view",
      "type": "function"
    },
    {
      "inputs": [
        {
          "internalType": "address",
          "name": "from",
          "type": "address"
        },
        {
          "internalType": "address",
          "name": "to",
          "type": "address"
        },
        {
          "internalType": "uint256[]",
          "name": "ids",
          "type": "uint256[]"
        },
        {
          "internalType": "uint256[]",
          "name": "values",
          "type": "uint256[]"
        },
        {
          "internalType": "bytes",
          "name": "data",
          "type": "bytes"
        }
      ],
      "name": "safeBatchTransferFrom",
      "outputs": [],
      "stateMutability": "nonpayable",
      "type": "function"
    },
    {
      "inputs": [
        {
          "internalType": "address",
          "name": "from",
          "type": "address"
        },
        {
          "internalType": "address",
          "name": "to",
          "type": "address"
        },
        {
          "internalType": "uint256",
          "name": "id",
          "type": "uint256"
        },
        {
          "internalType": "uint256",
          "name": "value",
          "type": "uint256"
        },
        {
          "internalType": "bytes",
          "name": "data",
          "type": "bytes"
        }
      ],
      "name": "safeTransferFrom",
      "outputs": [],
      "stateMutability": "nonpayable",
      "type": "function"
    },
    {
      "inputs": [
        {
          "internalType": "address",
          "name": "operator",
          "type": "address"
        },
        {
          "internalType": "bool",
          "name": "approved",
          "type": "bool"
        }
      ],
      "name": "setApprovalForAll",
      "outputs": [],
      "stateMutability": "nonpayable",
      "type": "function"
    },
    {
      "inputs": [
        {
          "internalType": "bytes4",
          "name": "interfaceId",
          "type": "bytes4"
        }
      ],
      "name": "supportsInterface",
      "outputs": [
        {
          "internalType": "bool",
          "name": "",
          "type": "bool"
        }
      ],
      "stateMutability": "view",
      "type": "function"
    },
    {
      "inputs": [],
      "name": "symbol",
      "outputs": [
        {
          "internalType": "string",
          "name": "",
          "type": "string"
        }
      ],
      "stateMutability": "view",
      "type": "function"
    },
    {
      "inputs": [
        {
          "internalType": "uint256",
          "name": "tokenId",
          "type": "uint256"
        }
      ],
      "name": "timeLeft",
      "outputs": [
        {
          "internalType": "uint256",
          "name": "remainingTime",
          "type": "uint256"
        }
      ],
      "stateMutability": "view",
      "type": "function"
    },
    {
      "inputs": [
        {
          "internalType": "uint256",
          "name": "",
          "type": "uint256"
        }
      ],
      "name": "tokenDetails",
      "outputs": [
        {
          "internalType": "address",
          "name": "creatorAddress",
          "type": "address"
        },
        {
          "internalType": "uint256",
          "name": "creationTime",
          "type": "uint256"
        },
        {
          "internalType": "string",
          "name": "metadataURI",
          "type": "string"
        }
      ],
      "stateMutability": "view",
      "type": "function"
    },
    {
      "inputs": [],
      "name": "totalSupply",
      "outputs": [
        {
          "internalType": "uint256",
          "name": "",
          "type": "uint256"
        }
      ],
      "stateMutability": "view",
      "type": "function"
    },
    {
      "inputs": [
        {
          "internalType": "uint256",
          "name": "id",
          "type": "uint256"
        }
      ],
      "name": "totalSupply",
      "outputs": [
        {
          "internalType": "uint256",
          "name": "",
          "type": "uint256"
        }
      ],
      "stateMutability": "view",
      "type": "function"
    },
    {
      "inputs": [
        {
          "internalType": "address",
          "name": "newOwner",
          "type": "address"
        }
      ],
      "name": "transferOwnership",
      "outputs": [],
      "stateMutability": "nonpayable",
      "type": "function"
    },
    {
      "inputs": [
        {
          "internalType": "uint256",
          "name": "newLifespan",
          "type": "uint256"
        }
      ],
      "name": "updateTokenLifespan",
      "outputs": [],
      "stateMutability": "nonpayable",
      "type": "function"
    },
    {
      "inputs": [
        {
          "internalType": "uint256",
          "name": "tokenId",
          "type": "uint256"
        }
      ],
      "name": "uri",
      "outputs": [
        {
          "internalType": "string",
          "name": "",
          "type": "string"
        }
      ],
      "stateMutability": "view",
      "type": "function"
    },
    {
      "inputs": [
        {
          "internalType": "address",
          "name": "tokenAddress",
          "type": "address"
        },
        {
          "internalType": "uint256",
          "name": "amount",
          "type": "uint256"
        }
      ],
      "name": "withdrawERC20",
      "outputs": [],
      "stateMutability": "nonpayable",
      "type": "function"
    },
    {
      "inputs": [],
      "name": "withdrawETH",
      "outputs": [],
      "stateMutability": "nonpayable",
      "type": "function"
    },
    {
      "stateMutability": "payable",
      "type": "receive"
    }
  ],
  "bytecode": "0x60806040523480156200001157600080fd5b50604051620050f5380380620050f583398181016040528101906200003791906200042b565b336040518060200160405280600081525062000059816200015860201b60201c565b50600073ffffffffffffffffffffffffffffffffffffffff168173ffffffffffffffffffffffffffffffffffffffff1603620000cf5760006040517f1e4fbdf7000000000000000000000000000000000000000000000000000000008152600401620000c69190620004d6565b60405180910390fd5b620000e0816200016d60201b60201c565b508260099081620000f291906200073e565b5081600a90816200010491906200073e565b5080600860006101000a81548173ffffffffffffffffffffffffffffffffffffffff021916908373ffffffffffffffffffffffffffffffffffffffff16021790555061546060068190555050505062000825565b80600290816200016991906200073e565b5050565b6000600560009054906101000a900473ffffffffffffffffffffffffffffffffffffffff16905081600560006101000a81548173ffffffffffffffffffffffffffffffffffffffff021916908373ffffffffffffffffffffffffffffffffffffffff1602179055508173ffffffffffffffffffffffffffffffffffffffff168173ffffffffffffffffffffffffffffffffffffffff167f8be0079c531659141344cd1fd0a4f28419497f9722a3daafe3b4186f6b6457e060405160405180910390a35050565b6000604051905090565b600080fd5b600080fd5b600080fd5b600080fd5b6000601f19601f8301169050919050565b7f4e487b7100000000000000000000000000000000000000000000000000000000600052604160045260246000fd5b6200029c8262000251565b810181811067ffffffffffffffff82111715620002be57620002bd62000262565b5b80604052505050565b6000620002d362000233565b9050620002e1828262000291565b919050565b600067ffffffffffffffff82111562000304576200030362000262565b5b6200030f8262000251565b9050602081019050919050565b60005b838110156200033c5780820151818401526020810190506200031f565b60008484015250505050565b60006200035f6200035984620002e6565b620002c7565b9050828152602081018484840111156200037e576200037d6200024c565b5b6200038b8482856200031c565b509392505050565b600082601f830112620003ab57620003aa62000247565b5b8151620003bd84826020860162000348565b91505092915050565b600073ffffffffffffffffffffffffffffffffffffffff82169050919050565b6000620003f382620003c6565b9050919050565b6200040581620003e6565b81146200041157600080fd5b50565b6000815190506200042581620003fa565b92915050565b6000806000606084860312156200044757620004466200023d565b5b600084015167ffffffffffffffff81111562000468576200046762000242565b5b620004768682870162000393565b935050602084015167ffffffffffffffff8111156200049a576200049962000242565b5b620004a88682870162000393565b9250506040620004bb8682870162000414565b9150509250925092565b620004d081620003e6565b82525050565b6000602082019050620004ed6000830184620004c5565b92915050565b600081519050919050565b7f4e487b7100000000000000000000000000000000000000000000000000000000600052602260045260246000fd5b600060028204905060018216806200054657607f821691505b6020821081036200055c576200055b620004fe565b5b50919050565b60008190508160005260206000209050919050565b60006020601f8301049050919050565b600082821b905092915050565b600060088302620005c67fffffffffffffffffffffffffffffffffffffffffffffffffffffffffffffffff8262000587565b620005d2868362000587565b95508019841693508086168417925050509392505050565b6000819050919050565b6000819050919050565b60006200061f620006196200061384620005ea565b620005f4565b620005ea565b9050919050565b6000819050919050565b6200063b83620005fe565b620006536200064a8262000626565b84845462000594565b825550505050565b600090565b6200066a6200065b565b6200067781848462000630565b505050565b5b818110156200069f576200069360008262000660565b6001810190506200067d565b5050565b601f821115620006ee57620006b88162000562565b620006c38462000577565b81016020851015620006d3578190505b620006eb620006e28562000577565b8301826200067c565b50505b505050565b600082821c905092915050565b60006200071360001984600802620006f3565b1980831691505092915050565b60006200072e838362000700565b9150826002028217905092915050565b6200074982620004f3565b67ffffffffffffffff81111562000765576200076462000262565b5b6200077182546200052d565b6200077e828285620006a3565b600060209050601f831160018114620007b65760008415620007a1578287015190505b620007ad858262000720565b8655506200081d565b601f198416620007c68662000562565b60005b82811015620007f057848901518255600182019150602085019450602081019050620007c9565b868310156200081057848901516200080c601f89168262000700565b8355505b6001600288020188555050505b505050505050565b6148c080620008356000396000f3fe60806040526004361061021d5760003560e01c806387a7dbd611610123578063b9a0e53a116100ab578063e985e9c51161006f578063e985e9c514610853578063f242432a14610890578063f2fde38b146108b9578063fa1100f4146108e2578063fc314e311461091f57610224565b8063b9a0e53a14610748578063bd85b03914610785578063db09a3f5146107c2578063de63863f146107ff578063e086e5ec1461083c57610224565b8063a1db9782116100f2578063a1db978214610663578063a22cb4651461068c578063ad5c4648146106b5578063b00c584a146106e0578063b94a6dfe1461071d57610224565b806387a7dbd6146105a55780638da5cb5b146105d0578063934689a9146105fb57806395d89b411461063857610224565b80632eb2c2d6116101a65780634e1273f4116101755780634e1273f4146104c05780634f558e79146104fd578063689f72b31461053a578063715018a61461056357806382bfefc81461057a57610224565b80632eb2c2d6146103f257806330b39cc41461041b578063473a42761461044657806347cb7a681461048357610224565b806318160ddd116101ed57806318160ddd146103085780631b2ef1ca146103335780631c348dd31461034f57806325ee6ee91461038c5780632c8da560146103c957610224565b8062fdd58e1461022657806301ffc9a71461026357806306fdde03146102a05780630e89341c146102cb57610224565b3661022457005b005b34801561023257600080fd5b5061024d600480360381019061024891906131a8565b61095e565b60405161025a91906131f7565b60405180910390f35b34801561026f57600080fd5b5061028a6004803603810190610285919061326a565b6109b8565b60405161029791906132b2565b60405180910390f35b3480156102ac57600080fd5b506102b5610a9a565b6040516102c2919061335d565b60405180910390f35b3480156102d757600080fd5b506102f260048036038101906102ed919061337f565b610b28565b6040516102ff919061335d565b60405180910390f35b34801561031457600080fd5b5061031d610c75565b60405161032a91906131f7565b60405180910390f35b61034d600480360381019061034891906133ac565b610c7f565b005b34801561035b57600080fd5b506103766004803603810190610371919061337f565b611114565b60405161038391906131f7565b60405180910390f35b34801561039857600080fd5b506103b360048036038101906103ae919061337f565b61112c565b6040516103c091906131f7565b60405180910390f35b3480156103d557600080fd5b506103f060048036038101906103eb9190613451565b611149565b005b3480156103fe57600080fd5b50610419600480360381019061041491906136a4565b6113c0565b005b34801561042757600080fd5b50610430611468565b60405161043d91906131f7565b60405180910390f35b34801561045257600080fd5b5061046d6004803603810190610468919061337f565b61146e565b60405161047a91906131f7565b60405180910390f35b34801561048f57600080fd5b506104aa60048036038101906104a5919061337f565b611486565b6040516104b791906131f7565b60405180910390f35b3480156104cc57600080fd5b506104e760048036038101906104e29190613836565b6115d9565b6040516104f4919061396c565b60405180910390f35b34801561050957600080fd5b50610524600480360381019061051f919061337f565b6116e2565b60405161053191906132b2565b60405180910390f35b34801561054657600080fd5b50610561600480360381019061055c919061337f565b6116f6565b005b34801561056f57600080fd5b5061057861174b565b005b34801561058657600080fd5b5061058f61175f565b60405161059c919061399d565b60405180910390f35b3480156105b157600080fd5b506105ba611785565b6040516105c791906131f7565b60405180910390f35b3480156105dc57600080fd5b506105e561178f565b6040516105f2919061399d565b60405180910390f35b34801561060757600080fd5b50610622600480360381019061061d919061337f565b6117b9565b60405161062f919061399d565b60405180910390f35b34801561064457600080fd5b5061064d6117f6565b60405161065a919061335d565b60405180910390f35b34801561066f57600080fd5b5061068a600480360381019061068591906131a8565b611884565b005b34801561069857600080fd5b506106b360048036038101906106ae91906139e4565b611916565b005b3480156106c157600080fd5b506106ca61192c565b6040516106d7919061399d565b60405180910390f35b3480156106ec57600080fd5b506107076004803603810190610702919061337f565b611944565b60405161071491906131f7565b60405180910390f35b34801561072957600080fd5b50610732611961565b60405161073f919061399d565b60405180910390f35b34801561075457600080fd5b5061076f600480360381019061076a919061337f565b611979565b60405161077c91906131f7565b60405180910390f35b34801561079157600080fd5b506107ac60048036038101906107a7919061337f565b611996565b6040516107b991906131f7565b60405180910390f35b3480156107ce57600080fd5b506107e960048036038101906107e4919061337f565b6119b3565b6040516107f691906131f7565b60405180910390f35b34801561080b57600080fd5b506108266004803603810190610821919061337f565b6119d0565b60405161083391906131f7565b60405180910390f35b34801561084857600080fd5b506108516119e8565b005b34801561085f57600080fd5b5061087a60048036038101906108759190613a24565b611b44565b60405161088791906132b2565b60405180910390f35b34801561089c57600080fd5b506108b760048036038101906108b29190613a64565b611bd8565b005b3480156108c557600080fd5b506108e060048036038101906108db9190613afb565b611c80565b005b3480156108ee57600080fd5b506109096004803603810190610904919061337f565b611d06565b60405161091691906131f7565b60405180910390f35b34801561092b57600080fd5b506109466004803603810190610941919061337f565b611d1e565b60405161095593929190613b28565b60405180910390f35b600080600083815260200190815260200160002060008473ffffffffffffffffffffffffffffffffffffffff1673ffffffffffffffffffffffffffffffffffffffff16815260200190815260200160002054905092915050565b60007fd9b67a26000000000000000000000000000000000000000000000000000000007bffffffffffffffffffffffffffffffffffffffffffffffffffffffff1916827bffffffffffffffffffffffffffffffffffffffffffffffffffffffff19161480610a8357507f0e89341c000000000000000000000000000000000000000000000000000000007bffffffffffffffffffffffffffffffffffffffffffffffffffffffff1916827bffffffffffffffffffffffffffffffffffffffffffffffffffffffff1916145b80610a935750610a9282611df0565b5b9050919050565b60098054610aa790613b95565b80601f0160208091040260200160405190810160405280929190818152602001828054610ad390613b95565b8015610b205780601f10610af557610100808354040283529160200191610b20565b820191906000526020600020905b815481529060010190602001808311610b0357829003601f168201915b505050505081565b6060600073ffffffffffffffffffffffffffffffffffffffff16600c600084815260200190815260200160002060000160009054906101000a900473ffffffffffffffffffffffffffffffffffffffff1673ffffffffffffffffffffffffffffffffffffffff1603610bcf576040517f08c379a0000000000000000000000000000000000000000000000000000000008152600401610bc690613c12565b60405180910390fd5b600c60008381526020019081526020016000206002018054610bf090613b95565b80601f0160208091040260200160405190810160405280929190818152602001828054610c1c90613b95565b8015610c695780601f10610c3e57610100808354040283529160200191610c69565b820191906000526020600020905b815481529060010190602001808311610c4c57829003601f168201915b50505050509050919050565b6000600454905090565b60008111610cc2576040517f08c379a0000000000000000000000000000000000000000000000000000000008152600401610cb990613c7e565b60405180910390fd5b6000600c60008481526020019081526020016000206040518060600160405290816000820160009054906101000a900473ffffffffffffffffffffffffffffffffffffffff1673ffffffffffffffffffffffffffffffffffffffff1673ffffffffffffffffffffffffffffffffffffffff16815260200160018201548152602001600282018054610d5290613b95565b80601f0160208091040260200160405190810160405280929190818152602001828054610d7e90613b95565b8015610dcb5780601f10610da057610100808354040283529160200191610dcb565b820191906000526020600020905b815481529060010190602001808311610dae57829003601f168201915b5050505050815250509050600073ffffffffffffffffffffffffffffffffffffffff16816000015173ffffffffffffffffffffffffffffffffffffffff1603610e49576040517f08c379a0000000000000000000000000000000000000000000000000000000008152600401610e4090613c12565b60405180910390fd5b6006548160200151610e5b9190613ccd565b421115610e9d576040517f08c379a0000000000000000000000000000000000000000000000000000000008152600401610e9490613d4d565b60405180910390fd5b6000826564f43391f000610eb19190613d6d565b9050803414610ef5576040517f08c379a0000000000000000000000000000000000000000000000000000000008152600401610eec90613dfb565b60405180910390fd5b82600d60008681526020019081526020016000206000828254610f189190613ccd565b9250508190555060006064602d34610f309190613d6d565b610f3a9190613e4a565b905060006064603234610f4d9190613d6d565b610f579190613e4a565b90506000818334610f689190613e7b565b610f729190613e7b565b905080600e60008981526020019081526020016000206000828254610f979190613ccd565b9250508190555081601060008981526020019081526020016000206000828254610fc19190613ccd565b925050819055506000856000015173ffffffffffffffffffffffffffffffffffffffff1683604051610ff290613ee0565b60006040518083038185875af1925050503d806000811461102f576040519150601f19603f3d011682016040523d82523d6000602084013e611034565b606091505b5050905080611078576040517f08c379a000000000000000000000000000000000000000000000000000000000815260040161106f90613f41565b60405180910390fd5b61109333898960405180602001604052806000815250611e5a565b61109d8489611ef3565b50856000015173ffffffffffffffffffffffffffffffffffffffff163373ffffffffffffffffffffffffffffffffffffffff16897fece9ed00de8cc3d3c29ab9f7b59ec960245f20c85ec19e9200f40e4c3b3027678a34604051611102929190613f61565b60405180910390a45050505050505050565b600f6020528060005260406000206000915090505481565b600060106000838152602001908152602001600020549050919050565b611151612293565b600073ffffffffffffffffffffffffffffffffffffffff168373ffffffffffffffffffffffffffffffffffffffff16036111c0576040517f08c379a00000000000000000000000000000000000000000000000000000000081526004016111b790613fd6565b60405180910390fd5b60008282905011611206576040517f08c379a00000000000000000000000000000000000000000000000000000000081526004016111fd90614042565b60405180910390fd5b6007600081548092919061121990614062565b919050555082600b6000600754815260200190815260200160002060006101000a81548173ffffffffffffffffffffffffffffffffffffffff021916908373ffffffffffffffffffffffffffffffffffffffff16021790555060405180606001604052808473ffffffffffffffffffffffffffffffffffffffff16815260200142815260200183838080601f016020809104026020016040519081016040528093929190818152602001838380828437600081840152601f19601f82011690508083019250505050505050815250600c6000600754815260200190815260200160002060008201518160000160006101000a81548173ffffffffffffffffffffffffffffffffffffffff021916908373ffffffffffffffffffffffffffffffffffffffff1602179055506020820151816001015560408201518160020190816113629190614256565b509050508273ffffffffffffffffffffffffffffffffffffffff166007547f463ec2a62c46678a81e23cde640446ca4b512f102bb3309cf5a3e2a4ae8314648484426040516113b393929190614355565b60405180910390a3505050565b60006113ca61231a565b90508073ffffffffffffffffffffffffffffffffffffffff168673ffffffffffffffffffffffffffffffffffffffff161415801561140f575061140d8682611b44565b155b156114535780866040517fe237d92200000000000000000000000000000000000000000000000000000000815260040161144a929190614387565b60405180910390fd5b6114608686868686612322565b505050505050565b60065481565b600e6020528060005260406000206000915090505481565b600080600c60008481526020019081526020016000206040518060600160405290816000820160009054906101000a900473ffffffffffffffffffffffffffffffffffffffff1673ffffffffffffffffffffffffffffffffffffffff1673ffffffffffffffffffffffffffffffffffffffff1681526020016001820154815260200160028201805461151790613b95565b80601f016020809104026020016040519081016040528092919081815260200182805461154390613b95565b80156115905780601f1061156557610100808354040283529160200191611590565b820191906000526020600020905b81548152906001019060200180831161157357829003601f168201915b5050505050815250509050600060065482602001516115af9190613ccd565b90508042106115c3576000925050506115d4565b42816115cf9190613e7b565b925050505b919050565b6060815183511461162557815183516040517f5b05999100000000000000000000000000000000000000000000000000000000815260040161161c929190613f61565b60405180910390fd5b6000835167ffffffffffffffff811115611642576116416134b1565b5b6040519080825280602002602001820160405280156116705781602001602082028036833780820191505090505b50905060005b84518110156116d7576116ad611695828761241a90919063ffffffff16565b6116a8838761242e90919063ffffffff16565b61095e565b8282815181106116c0576116bf6143b0565b5b602002602001018181525050806001019050611676565b508091505092915050565b6000806116ee83611996565b119050919050565b6116fe612293565b60008111611741576040517f08c379a00000000000000000000000000000000000000000000000000000000081526004016117389061442b565b60405180910390fd5b8060068190555050565b611753612293565b61175d6000612442565b565b600860009054906101000a900473ffffffffffffffffffffffffffffffffffffffff1681565b6564f43391f00081565b6000600560009054906101000a900473ffffffffffffffffffffffffffffffffffffffff16905090565b6000600b600083815260200190815260200160002060009054906101000a900473ffffffffffffffffffffffffffffffffffffffff169050919050565b600a805461180390613b95565b80601f016020809104026020016040519081016040528092919081815260200182805461182f90613b95565b801561187c5780601f106118515761010080835404028352916020019161187c565b820191906000526020600020905b81548152906001019060200180831161185f57829003601f168201915b505050505081565b61188c612293565b8173ffffffffffffffffffffffffffffffffffffffff1663a9059cbb6118b061178f565b836040518363ffffffff1660e01b81526004016118ce92919061444b565b6020604051808303816000875af11580156118ed573d6000803e3d6000fd5b505050506040513d601f19601f820116820180604052508101906119119190614489565b505050565b61192861192161231a565b8383612508565b5050565b73420000000000000000000000000000000000000681565b6000600e6000838152602001908152602001600020549050919050565b732626664c2603336e57b271c5c0b26f421741e48181565b6000600f6000838152602001908152602001600020549050919050565b600060036000838152602001908152602001600020549050919050565b6000600d6000838152602001908152602001600020549050919050565b60106020528060005260406000206000915090505481565b6119f0612293565b600047905060008111611a38576040517f08c379a0000000000000000000000000000000000000000000000000000000008152600401611a2f90614502565b60405180910390fd5b6000611a4261178f565b73ffffffffffffffffffffffffffffffffffffffff1682604051611a6590613ee0565b60006040518083038185875af1925050503d8060008114611aa2576040519150601f19603f3d011682016040523d82523d6000602084013e611aa7565b606091505b5050905080611aeb576040517f08c379a0000000000000000000000000000000000000000000000000000000008152600401611ae29061456e565b60405180910390fd5b611af361178f565b73ffffffffffffffffffffffffffffffffffffffff167f94b2de810873337ed265c5f8cf98c9cffefa06b8607f9a2f1fbaebdfbcfbef1c83604051611b3891906131f7565b60405180910390a25050565b6000600160008473ffffffffffffffffffffffffffffffffffffffff1673ffffffffffffffffffffffffffffffffffffffff16815260200190815260200160002060008373ffffffffffffffffffffffffffffffffffffffff1673ffffffffffffffffffffffffffffffffffffffff16815260200190815260200160002060009054906101000a900460ff16905092915050565b6000611be261231a565b90508073ffffffffffffffffffffffffffffffffffffffff168673ffffffffffffffffffffffffffffffffffffffff1614158015611c275750611c258682611b44565b155b15611c6b5780866040517fe237d922000000000000000000000000000000000000000000000000000000008152600401611c62929190614387565b60405180910390fd5b611c788686868686612678565b505050505050565b611c88612293565b600073ffffffffffffffffffffffffffffffffffffffff168173ffffffffffffffffffffffffffffffffffffffff1603611cfa5760006040517f1e4fbdf7000000000000000000000000000000000000000000000000000000008152600401611cf1919061399d565b60405180910390fd5b611d0381612442565b50565b600d6020528060005260406000206000915090505481565b600c6020528060005260406000206000915090508060000160009054906101000a900473ffffffffffffffffffffffffffffffffffffffff1690806001015490806002018054611d6d90613b95565b80601f0160208091040260200160405190810160405280929190818152602001828054611d9990613b95565b8015611de65780601f10611dbb57610100808354040283529160200191611de6565b820191906000526020600020905b815481529060010190602001808311611dc957829003601f168201915b5050505050905083565b60007f01ffc9a7000000000000000000000000000000000000000000000000000000007bffffffffffffffffffffffffffffffffffffffffffffffffffffffff1916827bffffffffffffffffffffffffffffffffffffffffffffffffffffffff1916149050919050565b600073ffffffffffffffffffffffffffffffffffffffff168473ffffffffffffffffffffffffffffffffffffffff1603611ecc5760006040517f57f447ce000000000000000000000000000000000000000000000000000000008152600401611ec3919061399d565b60405180910390fd5b600080611ed98585612783565b91509150611eeb6000878484876127b3565b505050505050565b6000806040518060e0016040528073420000000000000000000000000000000000000673ffffffffffffffffffffffffffffffffffffffff168152602001600860009054906101000a900473ffffffffffffffffffffffffffffffffffffffff1673ffffffffffffffffffffffffffffffffffffffff16815260200161271062ffffff1681526020013073ffffffffffffffffffffffffffffffffffffffff16815260200185815260200160018152602001600073ffffffffffffffffffffffffffffffffffffffff16815250905073420000000000000000000000000000000000000673ffffffffffffffffffffffffffffffffffffffff1663d0e30db0856040518263ffffffff1660e01b81526004016000604051808303818588803b15801561201e57600080fd5b505af1158015612032573d6000803e3d6000fd5b505050505073420000000000000000000000000000000000000673ffffffffffffffffffffffffffffffffffffffff1663095ea7b3732626664c2603336e57b271c5c0b26f421741e481866040518363ffffffff1660e01b815260040161209a92919061444b565b6020604051808303816000875af11580156120b9573d6000803e3d6000fd5b505050506040513d601f19601f820116820180604052508101906120dd9190614489565b50732626664c2603336e57b271c5c0b26f421741e48173ffffffffffffffffffffffffffffffffffffffff166304e45aaf826040518263ffffffff1660e01b815260040161212b9190614658565b6020604051808303816000875af115801561214a573d6000803e3d6000fd5b505050506040513d601f19601f8201168201806040525081019061216e9190614688565b9150600860009054906101000a900473ffffffffffffffffffffffffffffffffffffffff1673ffffffffffffffffffffffffffffffffffffffff1663a9059cbb6000846040518363ffffffff1660e01b81526004016121ce92919061444b565b6020604051808303816000875af11580156121ed573d6000803e3d6000fd5b505050506040513d601f19601f820116820180604052508101906122119190614489565b5081600f600085815260200190815260200160002060008282546122359190613ccd565b925050819055503373ffffffffffffffffffffffffffffffffffffffff167f18704ae982dcd24a1beeeed3ecf045ab0520d7b7519b97adf3e4f40bf7efe3398584604051612284929190613f61565b60405180910390a25092915050565b61229b61231a565b73ffffffffffffffffffffffffffffffffffffffff166122b961178f565b73ffffffffffffffffffffffffffffffffffffffff1614612318576122dc61231a565b6040517f118cdaa700000000000000000000000000000000000000000000000000000000815260040161230f919061399d565b60405180910390fd5b565b600033905090565b600073ffffffffffffffffffffffffffffffffffffffff168473ffffffffffffffffffffffffffffffffffffffff16036123945760006040517f57f447ce00000000000000000000000000000000000000000000000000000000815260040161238b919061399d565b60405180910390fd5b600073ffffffffffffffffffffffffffffffffffffffff168573ffffffffffffffffffffffffffffffffffffffff16036124065760006040517f01a835140000000000000000000000000000000000000000000000000000000081526004016123fd919061399d565b60405180910390fd5b61241385858585856127b3565b5050505050565b600060208202602084010151905092915050565b600060208202602084010151905092915050565b6000600560009054906101000a900473ffffffffffffffffffffffffffffffffffffffff16905081600560006101000a81548173ffffffffffffffffffffffffffffffffffffffff021916908373ffffffffffffffffffffffffffffffffffffffff1602179055508173ffffffffffffffffffffffffffffffffffffffff168173ffffffffffffffffffffffffffffffffffffffff167f8be0079c531659141344cd1fd0a4f28419497f9722a3daafe3b4186f6b6457e060405160405180910390a35050565b600073ffffffffffffffffffffffffffffffffffffffff168273ffffffffffffffffffffffffffffffffffffffff160361257a5760006040517fced3e100000000000000000000000000000000000000000000000000000000008152600401612571919061399d565b60405180910390fd5b80600160008573ffffffffffffffffffffffffffffffffffffffff1673ffffffffffffffffffffffffffffffffffffffff16815260200190815260200160002060008473ffffffffffffffffffffffffffffffffffffffff1673ffffffffffffffffffffffffffffffffffffffff16815260200190815260200160002060006101000a81548160ff0219169083151502179055508173ffffffffffffffffffffffffffffffffffffffff168373ffffffffffffffffffffffffffffffffffffffff167f17307eab39ab6107e8899845ad3d59bd9653f200f220920489ca2b5937696c318360405161266b91906132b2565b60405180910390a3505050565b600073ffffffffffffffffffffffffffffffffffffffff168473ffffffffffffffffffffffffffffffffffffffff16036126ea5760006040517f57f447ce0000000000000000000000000000000000000000000000000000000081526004016126e1919061399d565b60405180910390fd5b600073ffffffffffffffffffffffffffffffffffffffff168573ffffffffffffffffffffffffffffffffffffffff160361275c5760006040517f01a83514000000000000000000000000000000000000000000000000000000008152600401612753919061399d565b60405180910390fd5b6000806127698585612783565b9150915061277a87878484876127b3565b50505050505050565b60608060405191506001825283602083015260408201905060018152826020820152604081016040529250929050565b6127bf85858585612865565b600073ffffffffffffffffffffffffffffffffffffffff168473ffffffffffffffffffffffffffffffffffffffff161461285e5760006127fd61231a565b9050600184510361284d57600061281e60008661242e90919063ffffffff16565b9050600061283660008661242e90919063ffffffff16565b90506128468389898585896129f0565b505061285c565b61285b818787878787612ba4565b5b505b5050505050565b61287184848484612d58565b600073ffffffffffffffffffffffffffffffffffffffff168473ffffffffffffffffffffffffffffffffffffffff160361293b576000805b835181101561291f5760006128c7828561242e90919063ffffffff16565b905080600360006128e1858961242e90919063ffffffff16565b815260200190815260200160002060008282546128fe9190613ccd565b9250508190555080836129119190613ccd565b9250508060010190506128a9565b5080600460008282546129329190613ccd565b92505081905550505b600073ffffffffffffffffffffffffffffffffffffffff168373ffffffffffffffffffffffffffffffffffffffff16036129ea576000805b83518110156129d7576000612991828561242e90919063ffffffff16565b905080600360006129ab858961242e90919063ffffffff16565b815260200190815260200160002060008282540392505081905550808301925050806001019050612973565b5080600460008282540392505081905550505b50505050565b60008473ffffffffffffffffffffffffffffffffffffffff163b1115612b9c578373ffffffffffffffffffffffffffffffffffffffff1663f23a6e6187878686866040518663ffffffff1660e01b8152600401612a5195949392919061470a565b6020604051808303816000875af1925050508015612a8d57506040513d601f19601f82011682018060405250810190612a8a9190614779565b60015b612b11573d8060008114612abd576040519150601f19603f3d011682016040523d82523d6000602084013e612ac2565b606091505b506000815103612b0957846040517f57f447ce000000000000000000000000000000000000000000000000000000008152600401612b00919061399d565b60405180910390fd5b805181602001fd5b63f23a6e6160e01b7bffffffffffffffffffffffffffffffffffffffffffffffffffffffff1916817bffffffffffffffffffffffffffffffffffffffffffffffffffffffff191614612b9a57846040517f57f447ce000000000000000000000000000000000000000000000000000000008152600401612b91919061399d565b60405180910390fd5b505b505050505050565b60008473ffffffffffffffffffffffffffffffffffffffff163b1115612d50578373ffffffffffffffffffffffffffffffffffffffff1663bc197c8187878686866040518663ffffffff1660e01b8152600401612c059594939291906147a6565b6020604051808303816000875af1925050508015612c4157506040513d601f19601f82011682018060405250810190612c3e9190614779565b60015b612cc5573d8060008114612c71576040519150601f19603f3d011682016040523d82523d6000602084013e612c76565b606091505b506000815103612cbd57846040517f57f447ce000000000000000000000000000000000000000000000000000000008152600401612cb4919061399d565b60405180910390fd5b805181602001fd5b63bc197c8160e01b7bffffffffffffffffffffffffffffffffffffffffffffffffffffffff1916817bffffffffffffffffffffffffffffffffffffffffffffffffffffffff191614612d4e57846040517f57f447ce000000000000000000000000000000000000000000000000000000008152600401612d45919061399d565b60405180910390fd5b505b505050505050565b8051825114612da257815181516040517f5b059991000000000000000000000000000000000000000000000000000000008152600401612d99929190613f61565b60405180910390fd5b6000612dac61231a565b905060005b8351811015612fbb576000612dcf828661242e90919063ffffffff16565b90506000612de6838661242e90919063ffffffff16565b9050600073ffffffffffffffffffffffffffffffffffffffff168873ffffffffffffffffffffffffffffffffffffffff1614612f1357600080600084815260200190815260200160002060008a73ffffffffffffffffffffffffffffffffffffffff1673ffffffffffffffffffffffffffffffffffffffff16815260200190815260200160002054905081811015612ebb57888183856040517f03dee4c5000000000000000000000000000000000000000000000000000000008152600401612eb2949392919061480e565b60405180910390fd5b81810360008085815260200190815260200160002060008b73ffffffffffffffffffffffffffffffffffffffff1673ffffffffffffffffffffffffffffffffffffffff16815260200190815260200160002081905550505b600073ffffffffffffffffffffffffffffffffffffffff168773ffffffffffffffffffffffffffffffffffffffff1614612fae578060008084815260200190815260200160002060008973ffffffffffffffffffffffffffffffffffffffff1673ffffffffffffffffffffffffffffffffffffffff1681526020019081526020016000206000828254612fa69190613ccd565b925050819055505b5050806001019050612db1565b50600183510361307a576000612fdb60008561242e90919063ffffffff16565b90506000612ff360008561242e90919063ffffffff16565b90508573ffffffffffffffffffffffffffffffffffffffff168773ffffffffffffffffffffffffffffffffffffffff168473ffffffffffffffffffffffffffffffffffffffff167fc3d58168c5ae7397731d063d5bbf3d657854427343f4c083240f7aacaa2d0f62858560405161306b929190613f61565b60405180910390a450506130f9565b8373ffffffffffffffffffffffffffffffffffffffff168573ffffffffffffffffffffffffffffffffffffffff168273ffffffffffffffffffffffffffffffffffffffff167f4a39dc06d4c0dbc64b70af90fd698a233a518aa5d07e595d983b8c0526c8f7fb86866040516130f0929190614853565b60405180910390a45b5050505050565b6000604051905090565b600080fd5b600080fd5b600073ffffffffffffffffffffffffffffffffffffffff82169050919050565b600061313f82613114565b9050919050565b61314f81613134565b811461315a57600080fd5b50565b60008135905061316c81613146565b92915050565b6000819050919050565b61318581613172565b811461319057600080fd5b50565b6000813590506131a28161317c565b92915050565b600080604083850312156131bf576131be61310a565b5b60006131cd8582860161315d565b92505060206131de85828601613193565b9150509250929050565b6131f181613172565b82525050565b600060208201905061320c60008301846131e8565b92915050565b60007fffffffff0000000000000000000000000000000000000000000000000000000082169050919050565b61324781613212565b811461325257600080fd5b50565b6000813590506132648161323e565b92915050565b6000602082840312156132805761327f61310a565b5b600061328e84828501613255565b91505092915050565b60008115159050919050565b6132ac81613297565b82525050565b60006020820190506132c760008301846132a3565b92915050565b600081519050919050565b600082825260208201905092915050565b60005b838110156133075780820151818401526020810190506132ec565b60008484015250505050565b6000601f19601f8301169050919050565b600061332f826132cd565b61333981856132d8565b93506133498185602086016132e9565b61335281613313565b840191505092915050565b600060208201905081810360008301526133778184613324565b905092915050565b6000602082840312156133955761339461310a565b5b60006133a384828501613193565b91505092915050565b600080604083850312156133c3576133c261310a565b5b60006133d185828601613193565b92505060206133e285828601613193565b9150509250929050565b600080fd5b600080fd5b600080fd5b60008083601f840112613411576134106133ec565b5b8235905067ffffffffffffffff81111561342e5761342d6133f1565b5b60208301915083600182028301111561344a576134496133f6565b5b9250929050565b60008060006040848603121561346a5761346961310a565b5b60006134788682870161315d565b935050602084013567ffffffffffffffff8111156134995761349861310f565b5b6134a5868287016133fb565b92509250509250925092565b7f4e487b7100000000000000000000000000000000000000000000000000000000600052604160045260246000fd5b6134e982613313565b810181811067ffffffffffffffff82111715613508576135076134b1565b5b80604052505050565b600061351b613100565b905061352782826134e0565b919050565b600067ffffffffffffffff821115613547576135466134b1565b5b602082029050602081019050919050565b600061356b6135668461352c565b613511565b9050808382526020820190506020840283018581111561358e5761358d6133f6565b5b835b818110156135b757806135a38882613193565b845260208401935050602081019050613590565b5050509392505050565b600082601f8301126135d6576135d56133ec565b5b81356135e6848260208601613558565b91505092915050565b600080fd5b600067ffffffffffffffff82111561360f5761360e6134b1565b5b61361882613313565b9050602081019050919050565b82818337600083830152505050565b6000613647613642846135f4565b613511565b905082815260208101848484011115613663576136626135ef565b5b61366e848285613625565b509392505050565b600082601f83011261368b5761368a6133ec565b5b813561369b848260208601613634565b91505092915050565b600080600080600060a086880312156136c0576136bf61310a565b5b60006136ce8882890161315d565b95505060206136df8882890161315d565b945050604086013567ffffffffffffffff811115613700576136ff61310f565b5b61370c888289016135c1565b935050606086013567ffffffffffffffff81111561372d5761372c61310f565b5b613739888289016135c1565b925050608086013567ffffffffffffffff81111561375a5761375961310f565b5b61376688828901613676565b9150509295509295909350565b600067ffffffffffffffff82111561378e5761378d6134b1565b5b602082029050602081019050919050565b60006137b26137ad84613773565b613511565b905080838252602082019050602084028301858111156137d5576137d46133f6565b5b835b818110156137fe57806137ea888261315d565b8452602084019350506020810190506137d7565b5050509392505050565b600082601f83011261381d5761381c6133ec565b5b813561382d84826020860161379f565b91505092915050565b6000806040838503121561384d5761384c61310a565b5b600083013567ffffffffffffffff81111561386b5761386a61310f565b5b61387785828601613808565b925050602083013567ffffffffffffffff8111156138985761389761310f565b5b6138a4858286016135c1565b9150509250929050565b600081519050919050565b600082825260208201905092915050565b6000819050602082019050919050565b6138e381613172565b82525050565b60006138f583836138da565b60208301905092915050565b6000602082019050919050565b6000613919826138ae565b61392381856138b9565b935061392e836138ca565b8060005b8381101561395f57815161394688826138e9565b975061395183613901565b925050600181019050613932565b5085935050505092915050565b60006020820190508181036000830152613986818461390e565b905092915050565b61399781613134565b82525050565b60006020820190506139b2600083018461398e565b92915050565b6139c181613297565b81146139cc57600080fd5b50565b6000813590506139de816139b8565b92915050565b600080604083850312156139fb576139fa61310a565b5b6000613a098582860161315d565b9250506020613a1a858286016139cf565b9150509250929050565b60008060408385031215613a3b57613a3a61310a565b5b6000613a498582860161315d565b9250506020613a5a8582860161315d565b9150509250929050565b600080600080600060a08688031215613a8057613a7f61310a565b5b6000613a8e8882890161315d565b9550506020613a9f8882890161315d565b9450506040613ab088828901613193565b9350506060613ac188828901613193565b925050608086013567ffffffffffffffff811115613ae257613ae161310f565b5b613aee88828901613676565b9150509295509295909350565b600060208284031215613b1157613b1061310a565b5b6000613b1f8482850161315d565b91505092915050565b6000606082019050613b3d600083018661398e565b613b4a60208301856131e8565b8181036040830152613b5c8184613324565b9050949350505050565b7f4e487b7100000000000000000000000000000000000000000000000000000000600052602260045260246000fd5b60006002820490506001821680613bad57607f821691505b602082108103613bc057613bbf613b66565b5b50919050565b7f546f6b656e20646f6573206e6f74206578697374000000000000000000000000600082015250565b6000613bfc6014836132d8565b9150613c0782613bc6565b602082019050919050565b60006020820190508181036000830152613c2b81613bef565b9050919050565b7f4d757374206d696e74206174206c6561737420312065646974696f6e00000000600082015250565b6000613c68601c836132d8565b9150613c7382613c32565b602082019050919050565b60006020820190508181036000830152613c9781613c5b565b9050919050565b7f4e487b7100000000000000000000000000000000000000000000000000000000600052601160045260246000fd5b6000613cd882613172565b9150613ce383613172565b9250828201905080821115613cfb57613cfa613c9e565b5b92915050565b7f546f6b656e206861732065787069726564000000000000000000000000000000600082015250565b6000613d376011836132d8565b9150613d4282613d01565b602082019050919050565b60006020820190508181036000830152613d6681613d2a565b9050919050565b6000613d7882613172565b9150613d8383613172565b9250828202613d9181613172565b91508282048414831517613da857613da7613c9e565b5b5092915050565b7f496e636f7272656374204554482073656e740000000000000000000000000000600082015250565b6000613de56012836132d8565b9150613df082613daf565b602082019050919050565b60006020820190508181036000830152613e1481613dd8565b9050919050565b7f4e487b7100000000000000000000000000000000000000000000000000000000600052601260045260246000fd5b6000613e5582613172565b9150613e6083613172565b925082613e7057613e6f613e1b565b5b828204905092915050565b6000613e8682613172565b9150613e9183613172565b9250828203905081811115613ea957613ea8613c9e565b5b92915050565b600081905092915050565b50565b6000613eca600083613eaf565b9150613ed582613eba565b600082019050919050565b6000613eeb82613ebd565b9150819050919050565b7f43726561746f72207061796d656e74206661696c656400000000000000000000600082015250565b6000613f2b6016836132d8565b9150613f3682613ef5565b602082019050919050565b60006020820190508181036000830152613f5a81613f1e565b9050919050565b6000604082019050613f7660008301856131e8565b613f8360208301846131e8565b9392505050565b7f496e76616c69642063726561746f722061646472657373000000000000000000600082015250565b6000613fc06017836132d8565b9150613fcb82613f8a565b602082019050919050565b60006020820190508181036000830152613fef81613fb3565b9050919050565b7f496e76616c696420555249000000000000000000000000000000000000000000600082015250565b600061402c600b836132d8565b915061403782613ff6565b602082019050919050565b6000602082019050818103600083015261405b8161401f565b9050919050565b600061406d82613172565b91507fffffffffffffffffffffffffffffffffffffffffffffffffffffffffffffffff820361409f5761409e613c9e565b5b600182019050919050565b60008190508160005260206000209050919050565b60006020601f8301049050919050565b600082821b905092915050565b60006008830261410c7fffffffffffffffffffffffffffffffffffffffffffffffffffffffffffffffff826140cf565b61411686836140cf565b95508019841693508086168417925050509392505050565b6000819050919050565b600061415361414e61414984613172565b61412e565b613172565b9050919050565b6000819050919050565b61416d83614138565b6141816141798261415a565b8484546140dc565b825550505050565b600090565b614196614189565b6141a1818484614164565b505050565b5b818110156141c5576141ba60008261418e565b6001810190506141a7565b5050565b601f82111561420a576141db816140aa565b6141e4846140bf565b810160208510156141f3578190505b6142076141ff856140bf565b8301826141a6565b50505b505050565b600082821c905092915050565b600061422d6000198460080261420f565b1980831691505092915050565b6000614246838361421c565b9150826002028217905092915050565b61425f826132cd565b67ffffffffffffffff811115614278576142776134b1565b5b6142828254613b95565b61428d8282856141c9565b600060209050601f8311600181146142c057600084156142ae578287015190505b6142b8858261423a565b865550614320565b601f1984166142ce866140aa565b60005b828110156142f6578489015182556001820191506020850194506020810190506142d1565b86831015614313578489015161430f601f89168261421c565b8355505b6001600288020188555050505b505050505050565b600061433483856132d8565b9350614341838584613625565b61434a83613313565b840190509392505050565b60006040820190508181036000830152614370818587614328565b905061437f60208301846131e8565b949350505050565b600060408201905061439c600083018561398e565b6143a9602083018461398e565b9392505050565b7f4e487b7100000000000000000000000000000000000000000000000000000000600052603260045260246000fd5b7f4c6966657370616e206d7573742062652067726561746572207468616e203000600082015250565b6000614415601f836132d8565b9150614420826143df565b602082019050919050565b6000602082019050818103600083015261444481614408565b9050919050565b6000604082019050614460600083018561398e565b61446d60208301846131e8565b9392505050565b600081519050614483816139b8565b92915050565b60006020828403121561449f5761449e61310a565b5b60006144ad84828501614474565b91505092915050565b7f4e6f2045544820746f2077697468647261770000000000000000000000000000600082015250565b60006144ec6012836132d8565b91506144f7826144b6565b602082019050919050565b6000602082019050818103600083015261451b816144df565b9050919050565b7f455448207472616e73666572206661696c656400000000000000000000000000600082015250565b60006145586013836132d8565b915061456382614522565b602082019050919050565b600060208201905081810360008301526145878161454b565b9050919050565b61459781613134565b82525050565b600062ffffff82169050919050565b6145b58161459d565b82525050565b6145c481613114565b82525050565b60e0820160008201516145e0600085018261458e565b5060208201516145f3602085018261458e565b50604082015161460660408501826145ac565b506060820151614619606085018261458e565b50608082015161462c60808501826138da565b5060a082015161463f60a08501826138da565b5060c082015161465260c08501826145bb565b50505050565b600060e08201905061466d60008301846145ca565b92915050565b6000815190506146828161317c565b92915050565b60006020828403121561469e5761469d61310a565b5b60006146ac84828501614673565b91505092915050565b600081519050919050565b600082825260208201905092915050565b60006146dc826146b5565b6146e681856146c0565b93506146f68185602086016132e9565b6146ff81613313565b840191505092915050565b600060a08201905061471f600083018861398e565b61472c602083018761398e565b61473960408301866131e8565b61474660608301856131e8565b818103608083015261475881846146d1565b90509695505050505050565b6000815190506147738161323e565b92915050565b60006020828403121561478f5761478e61310a565b5b600061479d84828501614764565b91505092915050565b600060a0820190506147bb600083018861398e565b6147c8602083018761398e565b81810360408301526147da818661390e565b905081810360608301526147ee818561390e565b9050818103608083015261480281846146d1565b90509695505050505050565b6000608082019050614823600083018761398e565b61483060208301866131e8565b61483d60408301856131e8565b61484a60608301846131e8565b95945050505050565b6000604082019050818103600083015261486d818561390e565b90508181036020830152614881818461390e565b9050939250505056fea2646970667358221220b47ed9e80584cb566fbcb6d9e8967c2ab841d3614fa9ecf9cb78f7579a21358f64736f6c63430008180033",
  "linkReferences": {},
  "deployedLinkReferences": {}
}